:020000040800F2
:10000000800B002095010008990100089B01000861
:100010009D0100089F010008A101000800000000E8
:10002000000000000000000000000000A301000824
:10003000A501000800000000A7010008A9010008B0
:10004000AB010008AB010008AB010008AB010008E0
:10005000AB010008AB010008AB010008AB010008D0
:10006000AB010008AB010008AB010008AB010008C0
:10007000AB010008AB010008AB010008AB010008B0
:10008000AB010008AB010008AB010008AB010008A0
:10009000AB010008AB010008AB01000865150008C2
:1000A000AB010008D9210008AB010008AB01000832
:1000B000F1140008AB010008AB010008AB01000817
:1000C000AB010008AB010008AB010008AB01000860
:1000D000AB010008AB010008AB010008AB01000850
:1000E000CB150008AB010008AB01000800F002F8D6
:1000F00000F03AF80AA090E8000C82448344AAF188
:100100000107DA4501D100F02FF8AFF2090EBAE885
:100110000F0013F0010F18BFFB1A43F0010318473B
:10012000248A0000448A0000103A24BF78C878C1AD
:10013000FAD8520724BF30C830C144BF04680C60ED
:10014000704700000023002400250026103A28BF35
:1001500078C1FBD8520728BF30C148BF0B60704739
:100160001FB51FBD10B510BD03F009FB1146FFF709
:10017000F7FF00F02BF803F027FB03B4FFF7F2FFC3
:1001800003BC00F017FA000030BF72B662B680F30D
:100190000888704708480047FEE7FEE7FEE7FEE7ED
:1001A000FEE7FEE7FEE7FEE7FEE7FEE70348044959
:1001B000044A054B70470000ED0000088005002050
:1001C000800B00208007002080070020092000F01D
:1001D00098F9482000F038F8022000F07DF901205D
:1001E00000F07AF94FF47A7000F066F84FF47A7004
:1001F00000F062F800F05CFA01F090F900F0BCFD4C
:100200004FF4FA31482000F0EFF9002141F61F4089
:1002100001F056F801F00AF900F052FE41F61F41D4
:10022000312001F00DF80BE002F02AFB03F05CF93D
:1002300001200449087000BF024800780028FBD163
:10024000F2E70000020000204FF0E021096921F0F0
:1002500004014FF0E0221161C21700EB5272C2F3A9
:10026000C702234B1A701946097801EB4102C2EB11
:10027000C1114FF6FF7202EAC1011E4A1180704798
:1002800001461B4A12784A434FF0E0235A6100228C
:100290009A6101221A6100BF4FF0E022106900F05C
:1002A00001021AB100F48032002AF5D000224FF08A
:1002B000E0231A619A61704701460E4A12884A4348
:1002C0004FF0E0235A6100229A6101221A6100BFB7
:1002D0004FF0E022106900F001021AB100F4803200
:1002E000002AF5D000224FF0E0231A619A6170478E
:1002F0004000002042000020A34A0A400243A34BD2
:100300001A6070470146072323EA010212029F4B3D
:100310001B1D18684FF6FF0318409D4B18431043F0
:100320009A4B1B1D186070472DE9F041074688461F
:1003300014461D462846FFF7E5FFC5F1040007FAFD
:1003400000F60F20284100EA0800064306F00F06D9
:10035000E21704EBD2625211920002F1E022D2F8CD
:1003600000212146E31704EBD3635B11A4EB431C8C
:10037000012303FA0CF31A432046E31704EBD3637B
:100380005B119B0003F1E023C3F800218148005D6D
:1003900040EA06107F490855BDE8F08170B5044673
:1003A0000B46CE1701EB9676C6F38700CE1701EB0E
:1003B0009676B610A1EB8606B606350E764B9B698F
:1003C00043F00103744EB3614FEAB63353F8203063
:1003D0000F26AE40B343714E46F82030334653F8F3
:1003E000203004FA05F61E436C4B43F820606C4B3A
:1003F0001B6801268E403343694E336002F00103CF
:1004000043B1674B0C331B6801268E403343644E67
:100410000C36336002F0020343B1614B08331E68AF
:1004200001238B401E435E4B08331E6070BD00B538
:10043000002059490861C860142048610020886183
:10044000C8610846006840F001000860084640683E
:1004500054490840504948600846006852490840DD
:100460004D4908600846006820F48020086008466E
:10047000406820F4FE0048600020886000214FF0B2
:100480000060FFF739FF00BD10B540480830006834
:1004900040F004003D49083108603F48C06940F021
:1004A00080503D49C8614148406840F480703F49F0
:1004B00048600846006840F004000860084600688C
:1004C00040F002000860FFF75FFE10BD3048001DDD
:1004D0002E49091D08607047014649062E4A926957
:1004E00042F001022C4B9A612C4A083A526822F0E1
:1004F000E0622A4B083B5A601A4652680A435A6027
:10050000704730B504460025FFF791FF2248006888
:1005100040F480302049086000BF1F480068400C4C
:100520000028FAD04FF480601B494860A01EC4B276
:100530000846406840EA844048600846406840F405
:10054000803048601A48006840F03200184908605E
:100550001148006840F080700F49086000BF0E48E5
:100560000068400E0028FAD00B48406840F00200B6
:100570000949486005E008484068C0F3870505F070
:100580000305022DF7D130BD80FFFF1F08ED00E00D
:100590000000FA0500E400E00010024008000140FD
:1005A000000401400000FFF8FFFFF6FE007000406D
:1005B00000200240014600BF704700BF384A128841
:1005C00002F04002002AF9D0C2B2354B1B1D1A803E
:1005D00070473349091D088000BF3149098801F07F
:1005E00040010029F9D070472DE9F05F05460E461D
:1005F000300103F037FF81462A4905FB01F003F083
:1006000031FF8246494603F0E3FD0746384603F0D2
:10061000F1FE84B2204603F025FF8346394604F0FC
:1006200066F882464FF0834103F064FF814603F091
:10063000E1FE80464FF6FF7000EA041404EB080068
:1006400084B21948806940F004001749886108465F
:10065000806940F4804088611448006820F47F601D
:10066000124908600846006840F40B6008600E48B4
:10067000C06840F480400C49C8600846C06820F457
:100680008040C860064808300480001D008842F29F
:100690000C01084302490C310880BDE8F09F0000BE
:1006A0000038014040420F000010024004080140A1
:1006B0001748806940F004001549886115480068B2
:1006C00020F47020134908600846006840F4403068
:1006D000086010480C30006840F010000D490C31E3
:1006E0000860704718B900210B4A11600FE00B49F0
:1006F0000968491C094A1160814208D10649096804
:10070000C943074AC2F890110021044A116070479A
:1007100000100240000801409001214244000020E6
:10072000000021428448806940F0040082498861C9
:100730008248006820F47F208049086008460068ED
:1007400040F408200860081F00687D4908407B4984
:10075000091F0860084600687A4908437749091F5D
:10076000086076480830006840F00400734908319A
:1007700008600846006840F080000860084600688D
:1007800040F0200008600846006840F4C05008604F
:10079000704701466C48006828B96C480088401CC6
:1007A0006A4A108002E00020684A108066480068AB
:1007B00028B96748007810B90120654A107065486B
:1007C0000078B0B962480078012807D16248007803
:1007D000401C614A107001205E4A10705E4800782B
:1007E000022806D100205C4A10705C4A108002206A
:1007F000704755480068012804D10020544A107001
:10080000544A10705448007801281CD1534800887D
:10081000401C524A10801046008888420ADD4B482E
:100820000088884206DA00204B4A10704B4A10803C
:100830000120DDE745480088884204DD0020464A63
:100840001070464A10800020D2E710B54448007866
:1008500018B33D480C30006838B13B48243000687C
:1008600018B1394828300068B8B900203C490870F0
:100870003220FFF721FD34480C30006808B905200C
:1008800010BD31482430006808B90B20F8E72E4825
:100890002830006820B90C20F2E7012030490870A8
:1008A0000020EDE72F48008848B927481430006839
:1008B00028B92D480088401C2B49088002E0002000
:1008C0002949088028480088142807DD0120254987
:1008D00008800020244908800120704721480088B2
:1008E000012802D100201F4908800020F5E71F4899
:1008F000008840B91448006828B91D480088401C89
:100900001B49088002E00020194908801848008827
:10091000C82807DD012015490880002014490880F7
:100920000120704711480088012802D100200F499A
:1009300008800020F5E70000001002400408014094
:10094000FFF00F0F00088080080121424E000020B8
:1009500048000020490000204A0000204C000020F0
:1009600050000020540000205200002058000020B9
:100970005600002010B50A461AB10123F74C236037
:1009800002E00023F54C2360002114E00023F44C26
:10099000236000F080031BB10123241F236003E0C8
:1009A0000023EF4C241F23600123ED4C23604306FA
:1009B000180E4B1CD9B20829E8DB0123E74C236051
:1009C00010BD30B500241CE004F1B001C8B2002114
:1009D000FFF7D0FF00210846FFF7CCFF00211020D1
:1009E000FFF7C8FF002508E0DE4901EBC501085DFF
:1009F0000121FFF7BFFF681CC5B2802DF4DB601C2E
:100A0000C4B2082CE0DB30BD00B500218D20FFF71B
:100A1000B1FF00211420FFF7ADFF0021AF20FFF749
:100A2000A9FF00BD00B500218D20FFF7A3FF002125
:100A30001020FFF79FFF0021AE20FFF79BFF00BDB6
:100A400030B500240CE0002506E00020C54901EB8C
:100A5000C5010855681CC5B2802DF6DB601CC4B208
:100A6000082CF0DBFFF7ADFF30BDF0B514460026D3
:100A70007F2801DC3F2900DDF0BD0B46CF1701EBDD
:100A80005777FF10C7F10707FAB2CF1701EB577777
:100A9000FF10A1EBC707FDB2C5F107070123BB405B
:100AA000DEB24CB1AF4B03EBC0039B5C3343AD4FA5
:100AB00007EBC007BB5408E0AA4B03EBC0039B5CE9
:100AC000B343A84F07EBC007BB5400BFD4E72DE9E1
:100AD000F04F80460C4615461E46A346A5F1200061
:100AE000C5B200273EE00C2E07D105EB45009E491C
:100AF00001EB800010F8079004E09C4800EB051023
:100B000010F807904FF0000A26E009F0800028B1A5
:100B100021464046099AFFF7A8FF09E0099808B95D
:100B2000012000E00020024621464046FFF79DFFDD
:100B30004FEA49604FEA1069601CC4B2A4EB0B0095
:100B4000B04205D15C4608F1010000F0FF0806E064
:100B50000AF1010000F0FF0ABAF1080FD5DB00BF6F
:100B6000781CC7B2B742BEDBBDE8F08F10B50246B5
:100B7000012000E050430B1EA1F10104E1B2F9D1C4
:100B800010BD2DE9FF4F81B0074691461E460E9DD0
:100B90004FF0000A002439E0301B401EC1B20A2089
:100BA000FFF7E4FFB9FBF0F00A21B0FBF1F201FB23
:100BB0001208BAF1000F16D1701EA04213DDB8F171
:100BC000000F0ED10120AB4605EBDB71491001FB94
:100BD00004710090C8B22B4620220299FFF777FFDC
:100BE00012E04FF0010A0120AB4605EBDB71491022
:100BF00001FB04710090C8B208F13001CAB22B4663
:100C00000299FFF764FF00BF601CC4B2B442C3DBAB
:100C100005B0BDE8F08F78B505460E46144618E0DD
:100C20007A2D03DD002506F11000C6B23A2E04DD50
:100C3000002005460646FFF703FF012000902278BA
:100C40000C2331462846FFF742FF05F10800C5B2E4
:100C5000641C20780028E3D178BD2DE9F04F0746C9
:100C60000C4690461D46A346002631E0404800EB66
:100C7000C81010F826904FF0000A23E009F0800019
:100C800028B12A4621463846FFF7EFFE08E00DB9A5
:100C9000012000E00020024621463846FFF7E5FE2D
:100CA0004FEA49604FEA1069601CC4B2A4EB0B0024
:100CB000102803D15C46781CC7B206E00AF1010097
:100CC00000F0FF0ABAF1080FD8DB00BF701CC6B2F3
:100CD000202ECBDBBDE8F08F2DE9F04F07460C4608
:100CE00090461D46A346002633E0C8EBC8002149C4
:100CF00001EB001010F826904FF0000A23E009F0F5
:100D0000800028B12A4621463846FFF7AEFE08E0AB
:100D10000DB9012000E00020024621463846FFF7C9
:100D2000A4FE4FEA49604FEA1069601CC4B2A4EB0C
:100D30000B00102803D15C46781CC7B206E00AF10C
:100D4000010000F0FF0ABAF1080FD8DB00BF701CE9
:100D5000C6B21C2EC9DBBDE8F08F0000BC012142E9
:100D600094812142F4000020F0470008644C000800
:100D700054520008545D000810B54A48806940F09C
:100D80000800484988614848006848490840464981
:100D900008600846006846490843434908604148DE
:100DA000806940F004003F4988614248006820F0B3
:100DB0007040404908600846006840F000500860F4
:100DC00000203D4908606420FFF776FA01203B4986
:100DD000C1F88C010021AE20FFF7CCFD0021D52009
:100DE000FFF7C8FD00215020FFF7C4FD0021A82017
:100DF000FFF7C0FD00213F20FFF7BCFD0021D320FD
:100E0000FFF7B8FD00210846FFF7B4FD00214020A0
:100E1000FFF7B0FD00218D20FFF7ACFD002114206D
:100E2000FFF7A8FD00212020FFF7A4FD00210220EC
:100E3000FFF7A0FD0021A120FFF79CFD0021C020AD
:100E4000FFF798FD0021DA20FFF794FD0021122022
:100E5000FFF790FD00218120FFF78CFD0021EF209E
:100E6000FFF788FD0021D920FFF784FD0021F12044
:100E7000FFF780FD0021DB20FFF77CFD0021302003
:100E8000FFF778FD0021A420FFF774FD0021A620C4
:100E9000FFF770FD0021AF20FFF76CFDFFF7D0FDDD
:100EA00010BD000000100240000C0140FF0F00FFC9
:100EB00000202200040801408C8121420080214250
:100EC00010B5D548806940F00400D3498861D34803
:100ED000006820F47040D14908600846006820F09E
:100EE00070600860CC48806940F4C060CA4988617D
:100EF0000846C06840F40070C8600846C06820F426
:100F00000070C8600846406820F4404048600846C9
:100F1000406840F400404860C1480068C14908404A
:100F2000BF4908600846006808600846006820F469
:100F300080700860081D006820F00200091D08602C
:100F40000846006820F4602008600846006840F405
:100F5000602008600846006840F480100860084679
:100F6000006820F400600860AD482830006820F474
:100F70007000AB492831086008460068002008600E
:100F8000A7480C30006820F47040A5490C31086077
:100F90000846006808600846006820F07060086035
:100FA0000846006840F4E01008609D48001D006895
:100FB00040F001009A49091D08600846006840F0A9
:100FC0000800086000BF9648001D006800F0080097
:100FD0000028F8D19248001D006840F004009049B4
:100FE000091D086000BF8E48001D006800F0040065
:100FF0000028F8D10120FFF75FF98748C06840F466
:1010000080608549C8600846C06820F48060C86078
:101010000846406820F4404048600846406840F474
:1010200000404860804800687E4908407E4908606A
:101030000846006808600846006820F48070086070
:10104000081D006820F00200091D086008460068BD
:1010500020F4602008600846006840F460200860C2
:101060000846006840F4801008600846006820F4D4
:10107000006008606C482830006820F470006A49FD
:1010800028310860084600680020086066480C3077
:10109000006820F4704064490C310860084600681C
:1010A00008600846006820F0706008600846006824
:1010B00040F4E01008605C48001D006840F001004A
:1010C0005949091D08600846006840F0080008609A
:1010D00000BF5548001D006800F008000028F8D146
:1010E0005148001D006840F004004F49091D086088
:1010F00000BF4D48001D006800F004000028F8D132
:101100000120FFF7D9F810BD01464548303000688E
:1011100020F01F00424A3032106010460068084339
:1011200010603F48001D006840F480003C4A121DDA
:10113000106000BF3A48001F006800F0020000285D
:10114000F8D037484830006880B2704701463648CA
:101150003030006820F01F00334A303210601046F3
:101160000068084310603048001D006840F48000AB
:101170002D4A121D106000BF2B48001F006800F0B0
:1011800002000028F8D028484830006880B2704734
:101190002DE9F04F87B00620FFF7D8FF019002F04D
:1011A00082FD80464FF06632204B02F08FFD002218
:1011B0001F4BCDE9020102F089FD00221D4BCDE954
:1011C000040102F083FD064600221B4B02F0E4FB03
:1011D00004460022194B02F0DFFB824602F034FD88
:1011E0000690069807B0BDE8F08F2DE9F04107465C
:1011F0000C460025002608E03846FFF785FF054429
:10120000C820FFF73DF8701CC6B2A642F4DBB5FB60
:10121000F4F080B2BDE8F081001002400008014007
:1012200004240140FFFFF0000428014066660A40E4
:1012300000002640000059400000F03F0000B04090
:1012400070B505460C461348806940F400601149AA
:10125000886111480580001F04800F4820380088ED
:1012600040F001000C49203908800846008840F011
:101270004000088008482C38008840F001000649EA
:101280002C3908800223192203210120FFF74CF892
:1012900070BD0000001002402C2C01402F488069D6
:1012A00040F008002D4988612D48006880B22C4923
:1012B0000860084600682B490843294908607047C0
:1012C00000B503460A46FFF7E9FF2448C06940F02D
:1012D00002002249C8610846806940F00800886120
:1012E0001F48001F006820F0FF001D49091F08600B
:1012F0000846006840F0BB0008601B480380001FE0
:10130000028019481038008840F4C040164910394E
:1013100008800846008840F0600008800846008881
:1013200040F4006008800846008840F0080008800B
:10133000081D008840F48050091D08800846008878
:1013400040F480700880802007492C3908800846C6
:10135000008840F00100088000BD0000001002403D
:10136000040C0140000022222C04004010B5664805
:10137000C06940F001006449C8610846806940F0D6
:10138000040088616148006820F0FF005F49086040
:101390000846006840F044000860C804808940F0B6
:1013A0000100C90488810846808940F04000888196
:1013B00001231C2203211846FEF7B6FF00204FF040
:1013C000804108854FF6FF7088850846008820F424
:1013D000407008800846008820F0600008800846B9
:1013E000008B40F0010008830846008B40F48070B9
:1013F00008830846008C20F0020008840846008C10
:1014000020F0200008840846008B40F0300008835C
:101410000846008940F00300088142F21070888479
:101420008006008840F00100088010BD3648C06981
:1014300040F004003449C8610846806940F0080063
:1014400088613348006820F07F40314908600846D1
:10145000006840F08840086000202E4908804FF660
:10146000FF70091D08802B482838008820F4407040
:101470002849283908800846008820F06000088044
:1014800024481038008840F0300022491039088084
:1014900020482038008840F003001E492039088089
:1014A00042F210701B49091F08801A48283800882A
:1014B00040F0010017492839088070470146022989
:1014C00004D0032907D004290ED108E04FF0804250
:1014D000928C10B20AE0104A128810B206E00D4A4F
:1014E000121F128810B201E0002000BF00BF704739
:1014F0004FF08040008A4FF08040008A20F00100C9
:101500004FF08041088270470010024000080140FF
:10151000000C0140280800402404004010B5FFF7EB
:1015200001F9012207210020FEF738FF01220521E1
:101530000020FEF733FF01220B210020FEF72EFFD3
:1015400001220C210020FEF729FF02231722194651
:101550001846FEF7E9FE0223282219461846FEF730
:10156000E3FE10BD70B50520FEF7A6FE70480068CA
:1015700068B97048007808B9012000E000206D4982
:1015800008700846007810B900206B490870684858
:101590000830006898B969484FF07E5105680068C6
:1015A00002F0A8FD65492C4608604FF081412046B5
:1015B00002F0D0FE03D14FF07E5060490860202039
:1015C0005F4908608020086070BD10B50520FEF7F7
:1015D00073FE57481C30006868BB4FF07E51574877
:1015E000006802F0B7FE08D1564801685648006806
:1015F00003F088F8544908602DE04FF080414F48CF
:10160000006802F0A7FE08D1504801685048006801
:1016100003F078F84E4908601DE04E4947480068DD
:1016200002F098FE08D14C4801684C48006803F06D
:1016300069F84A4908600EE04FF081413F48006870
:1016400002F088FE07D1464801684648006803F06A
:1016500059F84449086036481830006868BB4FF0B4
:101660007E513648006802F075FE08D135480168A1
:101670003548006802F03EFD334908602DE04FF028
:1016800080412E48006802F065FE08D12F480168AD
:101690002F48006802F02EFD2D4908601DE02D49FD
:1016A0002648006802F056FE08D12B4801682B48F6
:1016B000006802F01FFD294908600EE04FF08141EB
:1016C0001E48006802F046FE07D1254801682548FB
:1016D000006802F00FFD2349086000211A480068E5
:1016E00002F0D4FE02D800201749086000211848F3
:1016F000006802F0CBFE02D80020154908600021E6
:101700001648006802F0C2FE02D8002013490860A3
:1017100000211448006802F0B9FE02D800201149E7
:1017200008604FF40060064908604000086010BD82
:101730001401214200000020650000202C00002040
:1017400014040140300000201C0000203400002060
:10175000200000200000404038000020240000202D
:101760003C0000202800002010B54FF48264642063
:10177000FFF70FF8FE49086008460068012801D10C
:10178000FC490860FA480068022801D1F94908605C
:10179000F8480068012812D1F7480068001DF64992
:1017A0000860F6480068001DF449086008460068B3
:1017B000A04204D10020EF490860F0490860ED48DC
:1017C0000068022812D1EC480068001FEA4908604E
:1017D000EA480068001DE949086008460068A04220
:1017E00004D10020E3490860E4490860FFF77FF86E
:1017F00001280BD142F21070DF490860E048007800
:1018000008B9012000E00020DD490870DD480078BB
:1018100001280DD1DA480078012803D10020DA49E7
:10182000086005E0D648007810B90120D649086064
:1018300010BD0146002901DA484200E00846704721
:1018400000B50246002A07DA0120D04908600020CE
:10185000CF49C1F8B40106E00020CC49086001205E
:10186000CB49C1F8B4011046FFF7E3FFC94908802E
:1018700000BD41F6F420C84909684242914202DAAB
:101880004142C54A1160C4490968814201DDC2492B
:10189000086070472DE9FC478246B7490968AAEB02
:1018A000010002F0C7FDBD490860BD48006802F0B4
:1018B000F5FB0446BB4ABC4B02F008FA064601F0B1
:1018C00091FFB7490860B548006802F0E7FB06469B
:1018D000B44AB64B02F0FAF904460D46B048006827
:1018E00002F0DCFB804622462B4601F0ADFFCDE93D
:1018F000000101F077FFAA490860AD480168A848D7
:10190000006802F0FFFEAB490860A5480068A849DE
:101910000860A9480168A748006802F0EBFD04468A
:10192000A64801689E48006802F0E4FD054621468D
:1019300002F0E0FBA24908600846006802F03EFDA4
:10194000BDE8FC872DE9F04104469E49204602F09F
:10195000D9FE9D4908609D4801689B48006802F0D7
:10196000D1FE9B4908609B4801689948006802F0D5
:10197000C1FD80469848006880F0004792480168A1
:10198000384602F0B7FD0646414602F0BBFE05466A
:1019900002F014FD914908608B4800688B4908608B
:1019A0008E480068BDE8F08170B50546754800783E
:1019B00001280AD173490870012400207349091DC8
:1019C00008607349C1F8B00100E0002484498548EB
:1019D000006802F05BFE08D283498248006802F08A
:1019E00055FD02D2B5F52F7F03DA01206549087055
:1019F0000124204670BD2DE9FC5F04468946A4EB16
:101A0000090002F017FD654908606548006802F0AA
:101A100045FB0746634A644B02F058F9054601F05E
:101A2000E1FE5F4908605D48006802F037FB05464B
:101A30005C4A5E4B02F04AF90746884658480068FF
:101A400002F02CFB82463A46434601F0FDFECDE90A
:101A5000000101F0C7FE524908605548016850482E
:101A6000006802F04FFE534908604D480068504935
:101A70000860514801684F48006802F03BFD054688
:101A80004E4801684648006802F034FD0646294683
:101A900002F030FB4A4908600846006802F08EFCFC
:101AA000BDE8FC9F2DE9F0415048007800285DD149
:101AB0004F494C48006802F0E9FD18D24D494948A9
:101AC000006802F0E3FC12D200214B48006802F0EB
:101AD000DDFC03D801204949087008E00021464890
:101AE000006802F0D3FD02D2012045490870444845
:101AF000007801281AD143493A48006802F0C6FD2F
:101B000032D241493748006802F0C0FC2CD2002094
:101B10003B49087042F215203C4908603C48007877
:101B2000012821DD41F6957008601DE033480078FA
:101B3000012819D133492B48006802F0A7FD13D2C0
:101B400031492848006802F0A1FC0DD200202B4941
:101B5000087041F613502D4908602D48007801287F
:101B600002DD41F655600860284853E0C4E00000FB
:101B7000B0000020B40000200C000020B8000020BD
:101B80008C0000200000002090012142B081214201
:101B90000080214240040040100000208800002006
:101BA000800000209A9999999999E93F9999C93F9C
:101BB0007C00002084000020280000202400002059
:101BC0007800002000C04145680000206C00002023
:101BD00070000020200000201C0000207400002065
:101BE0000080224518000020000061458E00002082
:101BF0000000614400808E4494000020AD0000206D
:101C0000AC0000200080724400C085449000002099
:101C1000C00000200168FE480068FFF7ECFEFD49A7
:101C20000860FD49FD48006802F030FC0AD2FC491A
:101C3000FA48006802F02AFD04D2FA480078401CF5
:101C4000F8490870F849F548006802F01FFC28D2EE
:101C5000F649F248006802F019FD22D2EC4800680B
:101C600041F69C0188421CDDE948006842F254417B
:101C7000884216DAEE49EF48006802F007FD10D2FC
:101C8000ED49EC48006802F001FC0AD2E548007812
:101C9000401CE4490870E9480068401CE7490860B6
:101CA00002E00020E5490860E4480068032811DDEF
:101CB0000120E3490870E3490870E348E3490860FC
:101CC000E348E44908604FF08240E3490860E34894
:101CD000E3490860CF48006841F20401884202DD10
:101CE0000846CC490860CB480068DE49884202DAE1
:101CF0000846C8490860C9E0D24800780128FAD1EE
:101D0000D948006818B9C2480068D8490860C34873
:101D10000068FFF717FED6490860D6480078401CD7
:101D2000C0B2D4490870042808DDB9480068FFF73C
:101D3000B1FDD14908600020CE490870CA4800684A
:101D4000401CC94908600846006864281BDD084635
:101D50000068B0F5FA6F16DAC448006841F6A4715D
:101D6000884205DDC1480068401EC04908600AE09D
:101D7000BE48006841F6A471884204DABB48006896
:101D8000401CBA490860B8480068B0F5FA6F03DD36
:101D900040F2D170B4490860B848007800286ED18C
:101DA000B7480088401CB64908800846008864216E
:101DB00090FBF1F201FB120010BBB249A34800688E
:101DC00002F098F9A1490860AE49A248006802F003
:101DD00091F9A0490860A048006802F05FF9064642
:101DE0000022A94B01F030FD044601F0FBFC9A49AA
:101DF0000860A4499A48006802F07CF99849086094
:101E0000A2499248006802F041FC02D29F488F49E3
:101E100008609E498F48006802F038FC02D29B4857
:101E20008C4908609A498C48006802F02FFC02D265
:101E300097488949086097498948006802F026FC5C
:101E400002D294488649086090498048006802F0B0
:101E500081FA14D18D497F48006802F07BFA0ED1D7
:101E60008B497D48006802F075FA08D189497C48A1
:101E7000006802F06FFA02D10120804908707C48A6
:101E800000687D490968401A62490860BDE8F08130
:101E90002DE9F04704460D46601B02F0CBFA7E495F
:101EA000086008460168774802F024FB81467849BB
:101EB00002F08EF90746794801687748006802F019
:101EC00021FC82466F4902F015FB8146704902F001
:101ED0007FF98046394602F00DF9064670480168E0
:101EE000304602F007F96E4908606B4800686B499C
:101EF00008606B48006802F061FABDE8F08770B5D1
:101F000004465A490968601A02F094FA6549086063
:101F1000654801686348006802F0F4FB63490860A3
:101F2000604800686049086061496048006802F0E4
:101F3000E1FA05465F495B48006802F0DBFA0646B5
:101F4000294602F0D7F85C4908600846006802F0AC
:101F500035FA70BD2DE9F04158480078002855D178
:101F600041F6F5604149086055492C48006802F087
:101F7000C1F80546FFF7E6FC0446C01704EB5070B5
:101F8000C0103B49086022480068FFF7B8FF3A4993
:101F900008601F48006841F60E71884208DA41F671
:101FA000F5611B480068FFF773FF1A49086007E0F6
:101FB0002F480068404230490968084415490860C4
:101FC00040491648006802F061FA19D23E491348A8
:101FD000006802F05BFB13D20D48006841F6C36154
:101FE00088420DDD0A48006841F62771884207DA09
:101FF0004FF07E513548006802F07CF833490860A4
:1020000030490648006802F041FA61E087E00000CC
:10201000080000201000002000D0594518000020C2
:1020200000B02945C00000200040494500403A4525
:102030000000F0C1940000200000F0419800002052
:102040008E0000209C000020000052431C00002055
:10205000000016432000002024000020000002435E
:102060002800002014ECFFFFA00000200C0000203E
:102070005C0000206400002060000020C1000020FF
:10208000C2000020000020410000E03F0000C843E3
:102090000000A04100009643C4000020CC000020B6
:1020A000C8000020E0000020DC000020E400002048
:1020B000000016440000C841D80000208D00002018
:1020C000006001450000A54400003444BC0000202D
:1020D00013D2A949A948006802F0D8FA0DD2A8483D
:1020E000006801F0DBFF0646A64AA74B01F0ACFBF7
:1020F000044601F077FBA2490860A449A0480068A3
:1021000002F0C4FA0BD20120A14908700020A149B5
:102110000870A149086041F65940A04908609E48EE
:10212000006840F6C411884202DD08469A490860FA
:10213000994800689A49884202DA08469649086038
:1021400095480068FFF77CFBBDE8F08170B5034659
:102150000022012108E0934830F81150481E914EAA
:1021600026F81050481CC1B20429F4DB18B28D4D7A
:10217000E880002105E08B4830F911000244481C3A
:10218000C1B20429F7DB1046D51702EB9575AD10E7
:102190002CB2204670BD70B583480068401C82494F
:1021A0000860052817DD814801687448006802F05E
:1021B000A9FA064602F002F90546FFF7C7FF0446F2
:1021C00002F038F97A4908606C480068774908607D
:1021D00000207549086070BD10B57648008800F091
:1021E000010000286FD07348008820F00100714979
:1021F00008807148007801280BD170480078401C95
:10220000C0B26E4908700A2803D1002008706A49DC
:1022100008700420FFF752F9694908600A21032079
:10222000FEF7E3FF044602F01DF954490860FFF78A
:10223000B2FF6448007801284AD16348007800283A
:1022400046D1FFF787FE52480078012801D1FFF7F9
:1022500029FCFFF70EFB4F48007888B95848006802
:1022600042F2AC61884205DA5548006841F20C71CF
:10227000884205DC0020FFF7E3FA0120524908708C
:102280005248007801281FD151493C48006802F0AB
:10229000FDF911D24F493948006802F0F7F80BD226
:1022A0004748006842F2AC61884205DA4448006859
:1022B00041F20C71884207DC0020FFF7C1FA0120CF
:1022C0004149087004E049E033480068FFF7B8FA74
:1022D0003C480078D8BB40480068FFF765FB3F48A2
:1022E000007868B9364800683D49086000203D49DB
:1022F00008603D4908603D49087001203749087071
:102300003148007818BB1D480068FFF71BFB3849AF
:10231000086036480078401CC0B234490870042870
:1023200008DD27480068FFF7B5FA32490860002049
:102330002E4908702E4800682E490968401A16492F
:102340000860FFF796FA14480068FFF779FA1E480C
:102350000078012802D10020FFF772FA1A480078AD
:1023600010B96420FEF7BEF9FEF712FF1A490860A3
:10237000FFF7FAF9002010BD0000344418000020D7
:10238000BC0000209A9999999999B93F0000484357
:102390008D0000208E000020100000209000002002
:1023A0003CF6FFFFD0000020A4000020A800002081
:1023B00094000020102C01400200002001000020A9
:1023C000080000208C000020000000209C0000205D
:1023D00000401C45004067451400002065000020B7
:1023E0000C0000207C0000206C0000206400002015
:1023F0005C0000206000002038B5FEA200210846E5
:10240000FEF709FCFD48006801F0F4FF04460C20CB
:1024100003232246002100902820FEF7B2FBF8A2F9
:1024200000213920FEF7F7FBF649F448006802F076
:1024300061F8054601F0C2FF0A2190FBF1F201FBB1
:1024400012040C2001232246002100903D20FEF7BB
:1024500098FBEDA200215F20FEF7DDFBEB48006852
:1024600001F0C8FF04460C20022322460021009000
:102470006C20FEF786FBE6A20A210020FEF7CBFBCC
:10248000E548006801F0B6FF04460C20032322460D
:102490000A2100902820FEF774FBD9A20A213920D6
:1024A000FEF7B9FBD749DC48006802F023F805467F
:1024B00001F084FF0A2190FBF1F201FB12040C20D1
:1024C0000123224600903D20FEF75BFBCEA20A21AD
:1024D0005F20FEF7A0FBD148006801F08BFF0446A7
:1024E0000C20022322460A2100906C20FEF749FBB3
:1024F000CBA214210020FEF78EFBCB48006801F030
:1025000079FF04460C200323224614210090282042
:10251000FEF737FBBAA214213920FEF77CFBB9493C
:10252000C148006801F0E6FF054601F047FF0A21B7
:1025300090FBF1F201FB12040C200123224614212E
:1025400000903D20FEF71DFBAFA214215F20FEF797
:1025500062FBB648006801F04DFF04460C200223E0
:102560002246142100906C20FEF70BFBB0A21E2126
:102570000020FEF750FBB048006801F03BFF044626
:102580000C20032322461E2100902820FEF7F9FA92
:102590009BA21E213920FEF73EFB9A49A6480068FF
:1025A00001F0A8FF054601F009FF0A2190FBF1F2B6
:1025B00001FB12040C20012322461E2100903D2025
:1025C000FEF7DFFA90A21E215F20FEF724FB9B4856
:1025D000006801F00FFF04460C20022322461E2152
:1025E00000906C20FEF7CDFA4FF07E5194480068C1
:1025F00001F0B0FE20D101200C23592200210090CF
:102600004B20FEF764FA01200C234E220A21009091
:102610004B20FEF75CFA01200C234E22142100907F
:102620004B20FEF754FA01200C234E221E2100906D
:102630004B20FEF74CFA75E04FF08041804800686F
:1026400001F088FE20D101200C234E2200210090B1
:102650004B20FEF73CFA01200C2359220A2100905E
:102660004B20FEF734FA01200C234E221421009057
:102670004B20FEF72CFA01200C234E221E21009045
:102680004B20FEF724FA4DE06E496D48006801F0DA
:1026900061FE20D101200C234E22002100904B200E
:1026A000FEF715FA01200C234E220A2100904B2040
:1026B000FEF70DFA01200C235922142100904B2023
:1026C000FEF705FA01200C234E221E2100904B201C
:1026D000FEF7FDF926E04FF081415948006801F00E
:1026E00039FE1FD101200C234E22002100904B20E7
:1026F000FEF7EDF901200C234E220A2100904B2019
:10270000FEF7E5F901200C234E22142100904B2006
:10271000FEF7DDF901200C2359221E2100904B20E9
:10272000FEF7D5F948A228215020FEF774FA0C20B4
:10273000052300904548282102685F20FEF721FA12
:1027400043A228210020FEF766FA2DA22821292085
:10275000FEF761FA40A228213F20FEF75CFA3F48CD
:102760000068642190FBF1F40C200223224628210A
:1027700000901C20FEF705FA38480068642190FBA1
:10278000F1F201FB12040C200223224628210090C2
:102790003320FEF7F6F931480068642190FBF1F22E
:1027A00001FB12000A2807DA0C200223002228214C
:1027B00000902D20FEF7E5F929A232215020FEF7E6
:1027C0002AFA0C20052300902648322102685F2057
:1027D000FEF7D7F924A232210020FEF71CFA244884
:1027E000006801F007FE04460C2004232246322133
:1027F00000903FE0422D4B50000000001C000020E4
:102800002E00000000002041413A0000300000206E
:10281000422D4B4400000000200000203400002026
:10282000502D4B50000000002400002038000020F4
:10283000502D4B4400000000280000203C000020E8
:102840002C00002000004040543A00000C00002002
:10285000564F4C3A000000005600000014000020C3
:10286000503A0000080000204144433A00000000B4
:10287000180000201E20FEF784F9FEF7A2F838BDEC
:1028800010B50121FE48006800F092FDFD48006887
:1028900001F0D0FD0446022100F08AFD0321002052
:1028A00000F086FD032000F0D2FDF74908700020FB
:1028B000F649087012E000BFF548008800F04000BB
:1028C0000028F9D0F348F1490978405CF049091D26
:1028D0000880EE480078401CEC490870EB4800780E
:1028E000E94909788842E6DB10BD10B501230022D2
:1028F00011461C20FEF7F0F901231A4600212A2078
:10290000FEF7EAF90123022200213820FEF7E4F95C
:102910000123032200214620FEF7DEF901230422D1
:1029200000215420FEF7D8F901230522002162205E
:10293000FEF7D2F90123062200217020FEF7CCF920
:102940000123072210210020FEF7C6F901230822E7
:1029500010210E20FEF7C0F90123092210211C20AE
:10296000FEF7BAF901230A2210212A20FEF7B4F952
:1029700001230B2210213820FEF7AEF901230C228F
:1029800010214620FEF7A8F901230D221021542022
:10299000FEF7A2F901230E2210216220FEF79CF916
:1029A00001230F2210217020FEF796F90123102237
:1029B00020210020FEF790F90123112220210E2072
:1029C000FEF78AF90123122220211C20FEF784F948
:1029D0000123132220212A20FEF77EF9012314224D
:1029E00020213820FEF778F90123152220214620E6
:1029F000FEF772F90123162220215420FEF76CF90C
:102A00000123172220216220FEF766F901231822F4
:102A100020217020FEF760F90123192230210020C7
:102A2000FEF75AF901231A2230210E20FEF754F93D
:102A300001231B2230211C20FEF74EF901231C220A
:102A400030212A20FEF748F901231C2230212E20B4
:102A5000FEF742F901231C2230213220FEF73CF917
:102A6000FDF7AFFF10BD10B501230C220021084671
:102A7000FEF732F901231D2200210E20FEF72CF96A
:102A800001231E2200211C20FEF726F901231F220C
:102A900000212A20FEF720F90123202200213820DE
:102AA000FEF71AF90123212200214620FEF714F92E
:102AB0000123222200215420FEF70EF901230B22CC
:102AC00000216220FEF708F9012323220021702053
:102AD000FEF702F90123242210210020FEF7FCF862
:102AE0000123252210210E20FEF7F6F801232622CD
:102AF00010211C20FEF7F0F80123272210212A20A4
:102B0000FEF7EAF80123282210213820FEF7E4F826
:102B10000123292210214620FEF7DEF801232A2274
:102B200010215420FEF7D8F801232B221021622017
:102B3000FEF7D2F801232C2210217020FEF7CCF8EA
:102B400001232D2220210020FEF7C6F801232E228A
:102B500020210E20FEF7C0F80123132220211C2083
:102B6000FEF7BAF801232F2220212A20FEF7B4F81D
:102B70000123302220213820FEF7AEF80123312234
:102B800020214620FEF7A8F80123322220215420DC
:102B9000FEF7A2F80123332220216220FEF79CF8E1
:102BA0000123182220217020FEF796F80123292204
:102BB00030210020FEF790F80123342230210E202E
:102BC000FEF78AF80123352230211C20FEF784F815
:102BD0000123182230212A20FEF77EF80123192232
:102BE00030213820FEF778F80123362230214620A4
:102BF000FEF772F80123372230215420FEF76CF8DB
:102C000001231C2230216220FEF766F801231C22DA
:102C100030216620FEF760F801231C2230216A2053
:102C2000FEF75AF8FDF7CDFE10BD10B50123422284
:102C300000210846FEF750F80123432200210E2010
:102C4000FEF74AF80123442200211C20FEF744F835
:102C50000123242200212A20FEF73EF80123252209
:102C600000213820FEF738F80123452200214620B4
:102C7000FEF732F801230222002154200CE000006C
:102C80001800002008000020EA000020E8000020D2
:102C900000380140F4040020FEF71EF8012303224F
:102CA00000216220FEF718F8012304220021702081
:102CB000FEF712F80123462210210020FEF70CF83F
:102CC0000123472210210E20FEF706F80123482297
:102CD00010211C20FEF700F80123492210212A2090
:102CE000FDF7FAFF01234A2210213820FDF7F4FFF7
:102CF00001234B2210214620FDF7EEFF01234C2239
:102D000010215420FDF7E8FF01234D2210216220FD
:102D1000FDF7E2FF01234E2210217020FDF7DCFFBA
:102D200001234F2220210020FDF7D6FF012350224E
:102D300020210E20FDF7D0FF01230B2220211C2093
:102D4000FDF7CAFF0123512220212A20FDF7C4FFED
:102D50000123332220213820FDF7BEFF01233C222E
:102D600020214620FDF7B8FF01233D2220215420D9
:102D7000FDF7B2FF0123522220216220FDF7ACFFB4
:102D80000123532220217020FDF7A6FF01235422A6
:102D900030210020FDF7A0FF0123552230210E2015
:102DA000FDF79AFF01234D2230211C20FDF794FFEF
:102DB00001234E2230212A20FDF78EFF01235622C7
:102DC00030213820FDF788FF01235722302146208B
:102DD000FDF782FF01234C2230215420FDF77CFFB8
:102DE0000123582230216220FDF776FF012359226A
:102DF00030217020FDF770FFFDF7E3FD10BD10B529
:102E00000123232200210846FDF766FF01235A22F1
:102E100000210E20FDF760FF0123242200211C2049
:102E2000FDF75AFF0123252200212A20FDF754FF38
:102E30000123262200213820FDF74EFF01232722FF
:102E400000214620FDF748FF0123282200215420BD
:102E5000FDF742FF0123292200216220FDF73CFFFC
:102E600001235B2200217020FDF736FF01235C2245
:102E700010210020FDF730FF01235D2210210920E1
:102E8000FDF72AFF01235E2210211220FDF724FF07
:102E900001234C2210211B20FDF71EFF01235F227E
:102EA00010212920FDF718FF012339221021372096
:102EB000FDF712FF0123602210214520FDF70CFFD2
:102EC0000123612210214E20FDF706FF012360221D
:102ED00010215720FDF700FF0123612210216020FF
:102EE000FDF7FAFE0123632210216920FDF7F4FEAD
:102EF0000123602220210020FDF7EEFE0123612244
:102F000020210920FDF7E8FE012362222021122062
:102F1000FDF7E2FE0123612220211B20FDF7DCFEEC
:102F20000123642220212420FDF7D6FE012357220D
:102F300020213220FDF7D0FE01230B22202140204A
:102F4000FDF7CAFE0123512220214E20FDF7C4FEC9
:102F50000123332220215C20FDF7BEFE01234F22F6
:102F600020216A20FDF7B8FE0123652230210020D0
:102F7000FDF7B2FE0123492230210E20FDF7ACFE01
:102F800001234A2230211C20FDF7A6FE01234B22FB
:102F900030212A20FDF7A0FE01234C2230213820C9
:102FA000FDF79AFE01234D2230214620FDF794FEC5
:102FB00001234E2230215420FDF78EFE01231322DF
:102FC00030216220FDF788FE01233C223021702051
:102FD000FDF782FEFDF7F5FC10BD38B501233D225B
:102FE00000210846FDF778FE0123312200210E2042
:102FF000FDF772FE0123662200211C20FDF76CFE06
:103000000123332200212A20FDF766FE012314222A
:1030100000213820FDF760FE012315220021462003
:10302000FDF75AFE0123162200215420FDF754FE1D
:103030000123172200216220FDF74EFE01231822F2
:1030400000217020FDF748FE0123192210210020E5
:10305000FDF742FE0123672210210E20FDF73CFE02
:103060000123682210211C20FDF736FE01230722D0
:1030700010212A20FDF730FE0123082210213820DC
:10308000FDF72AFE01231C2210214620FDF724FE15
:1030900001231C2210214A20FDF71EFE01231C22C1
:1030A00010214E20FDF718FE012010234122282177
:1030B00000901820FDF70BFD012010234422282149
:1030C00000902020FDF703FD01201023432228213A
:1030D00000900846FDF7FBFCAD48006801F08AF956
:1030E0000446102004232246282100904E20FDF79C
:1030F00048FDFDF766FC38BD38B5012338220021B4
:103100001520FDF7E9FD0123392200212320FDF7D9
:10311000E3FD01233A2200213120FDF7DDFD0123EB
:103120003B2200213F20FDF7D7FD01233C22002157
:103130004D20FDF7D1FD01233D2200215B20FDF74D
:10314000CBFD01233E2200216920FDF7C5FD0123AF
:103150003F2210210020FDF7BFFD01234022102156
:103160000E20FDF7B9FD0123412210211C20FDF79F
:10317000B3FD01231C2210212E20FDF7ADFD0123FC
:103180001C2210213520FDF7A7FD01231C22102150
:103190003C20FDF7A1FD01231C2210214320FDF757
:1031A0009BFD01231C2210214A20FDF795FD0123E0
:1031B0001C2210215120FDF78FFD01230C2220211C
:1031C0000E20FDF789FD01232B2220211C20FDF775
:1031D00083FD01232C2220212A20FDF77DFD0123E0
:1031E000242220213820FDF777FD012325222021EC
:1031F0004620FDF771FD01232D2220215420FDF7EB
:103200006BFD01232E2220216220FDF765FD0120A8
:1032100010234122302100901820FDF758FC012096
:1032200010234422302100902020FDF750FC012083
:1032300010234322302100902820FDF748FC5448F9
:10324000006801F0D7F804461020042322463021FC
:1032500000904E20FDF795FCFDF7B3FB38BD10B58F
:103260000123002204212020FDF7F7FC01231A4648
:1032700004213020FDF7F1FC01230222042140202B
:10328000FDF7EBFC0123032204215020FDF7E5FCB0
:103290000123042218210846FDF7DFFC0123052243
:1032A00018212820FDF7D9FC0123062218213820F7
:1032B000FDF7D3FC0123072218214820FDF7CDFCA0
:1032C0000123082218215820FDF7C7FC01230922F9
:1032D00018216820FDF7C1FC01230A222C210020BF
:1032E000FDF7BBFC01230B222C211020FDF7B5FCC0
:1032F00001230C222C212020FDF7AFFC01230D22FD
:103300002C213020FDF7A9FCFDF75BFB10BD10B5AB
:1033100001230E2210211820FDF79FFC01230F220C
:1033200010212820FDF799FC012310221146382096
:10333000FDF793FC0123112210214820FDF78DFC9D
:103340000123122210215820FDF787FC01231322AC
:1033500020211820FDF781FC0123142220212820A0
:10336000FDF77BFC0123152220213820FDF775FC99
:103370000123002220214820FDF76FFC01231A467B
:1033800020215820FDF769FCFDF71BFB10BD000054
:103390001800002030B503461C788C545D78541C0E
:1033A0000D559D78941C0D55DD78D41C0D5530BD00
:1033B00013B50C460A2C00DC04B91CBD0B2C43D2FF
:1033C000DFE804F042060C12181E242A30363C00B6
:1033D000012244496846FFF7DDFF35E005224149F7
:1033E0006846FFF7D7FF2FE009223E496846FFF7FE
:1033F000D1FF29E00D223B496846FFF7CBFF23E0D0
:10340000112238496846FFF7C5FF1DE015223549EE
:103410006846FFF7BFFF17E0192232496846FFF7F9
:10342000B9FF11E01D222F496846FFF7B3FF0BE0FB
:1034300021222C496846FFF7ADFF05E025222949E6
:103440006846FFF7A7FF00BF00BF00BFB5E7014612
:103450000A2900DC09B9002070472420214A107095
:103460000B293CD2DFE801F03B060B10151A1F2494
:10347000292F350005201B4A50710620ECE7092052
:10348000184A50720A20E7E70D20164A50730E20A2
:10349000E2E71120134A50741220DDE71520114A8B
:1034A00050751620D8E719200E4A50761A20D3E717
:1034B0001D200C4A50771E20CEE72120094A82F8B1
:1034C00021002220C8E72520064A82F82500262070
:1034D000C2E72920034A82F829002A20BCE70020FD
:1034E000BAE70000F404002038B500BF9748007820
:1034F000012820D10020954908709548006840F0C7
:103500002000934908600846006840F08000086089
:103510000846006840F4006008600846006840F40F
:10352000805008608B48008840F00100894908807D
:10353000FDF786FA01E0FEF75FFFFDF7B3F90446F9
:10354000012C01D18449087083480078012875D185
:10355000002081490870FDF773FA01207B4908704B
:1035600000207E4908807A48006820F020007849D1
:1035700008600846006820F080000860084600687F
:1035800020F4006008600846006820F4805008605D
:103590007048008800F0FE006E490880D4E000BF4B
:1035A000FDF753F90446FFF7A0F91E20FCF784FE4F
:1035B000052C7DD1FDF744FAC2E000BF1E20FCF7C8
:1035C0007BFEFDF742F90446FFF74DFA0B2C70D154
:1035D000FDF736FAAEE000BFFFF727FB1E20FCF731
:1035E0006BFEFDF732F904460B2C75D1FDF728FA76
:1035F0009AE000BFFFF703FC1E20FCF75DFEFDF71D
:1036000024F904460B2C68D1FDF71AFA86E000BFB6
:103610000F210320FDF7E9FD054600F023FF504987
:103620000860FFF7DAFC3220FCF746FEFDF70DF9E3
:1036300004460C2C03D1FDF703FADBE785E0052CEB
:103640006CD1FDF7FDF90020464908700A2464E0BA
:103650000F210320FDF7C9FD054600F003FF404997
:103660000860102002232246014600905820FDF7F2
:1036700088FAFFF741FD3C480078401C3A49087041
:103680001E20FCF719FE38480078C82833DC37497B
:103690003348006800F0FAFF21D835493048006807
:1036A00000F0F4FE1BD82F480078401C2D4901E0A3
:1036B00047E040E008700846007896280FDDFDF7E7
:1036C000BFF90BE0002028490870FFF7C8FDFDF79F
:1036D000BCF8052802D109E727E020E0F2E72248FC
:1036E0000078142190FBF1F201FB1200012814D1A3
:1036F000601EC4B211E000201B490870FDF7A0F95C
:10370000FFF705FE40F6B830FCF7D6FD4FF4FA603F
:10371000FCF7D2FDFDF794F97AE799E777E70C2CEF
:1037200002D1FDF78DF957E763E70C2C02D1FDF7C5
:1037300087F943E74FE70C2C02D1FDF781F92FE71A
:103740003BE70C2C00D1D1E629E738BD040000206E
:10375000000401400C2C0140030000204004004004
:1037600018000020F0000020F100002000807C44C0
:1037700000C0804470477047704770477047754677
:1037800000F02CF8AE4605006946534620F00700CD
:10379000854618B020B5FCF709FDBDE820404FF084
:1037A00000064FF000074FF000084FF0000B21F02B
:1037B0000701AC46ACE8C009ACE8C009ACE8C009F8
:1037C000ACE8C0098D46704710B50446AFF30080E1
:1037D0002046BDE81040FCF7D0BC00000048704710
:1037E0002005002021F00042A2F16052B2F5801FB6
:1037F00001F0004328BFD2F17F6C0BD95FEA001CB7
:1038000043EAC20242EB507018BF704728BF20F055
:1038100001007047B2F5801FBCBF184670474FEAE1
:10382000410C1CF5001F02D2084600F02ABF70B5FB
:1038300000F0F6FA00000089FFF7F6BF4FF00040F5
:10384000A0F580007047000010B591EA030F48BF53
:1038500083F0004300F14083841A71EB030C05D21E
:10386000121943EB0C03001B61EB0C01DFF824E1A0
:103870004FEA1154A4EB135C1EEA430F18BF9EEAF3
:10388000445F73D023EA0E03DCF1200E21EA0451D9
:1038900043F4801332D322FA0CFE10EB0E0023FA0D
:1038A0000CFE41EB0E01CCF1200E03FA0EFE10EBE4
:1038B0000E0051F10001B1F5801FCCF1200E32D283
:1038C00001EB045112FA0EF2BDE8104058BF7047E8
:1038D000401C38BF5FEA420218BF7047002814BF7F
:1038E00020F0010041F100014FEA410313F5001FF0
:1038F00038BF7047A1F1C04100F0E0BA012A43EBA4
:103900000302ACF1200CDCF11F0E32BF4FF0000EB1
:1039100023FA0CF310EB030041EB0451B4EB115FFD
:10392000D0D0A1EB045101F5801149085FEA3000C5
:1039300001EB04510ED350F1000038BF12FA0EFE15
:1039400008D1BDE81040C9E7401C38BF5FEA420219
:10395000CAD1C3E7BDE810404FEA410313F5001F89
:1039600038BF7047A1F1C04100F0A8BA9EEA445F99
:1039700008D011EA5E0FBDE8104004BF01F000411D
:1039800000207047BDE8104070B500F049FA00BF54
:1039900064FBBE3E0000E0FF2DE9C04130B4DFF81B
:1039A000A0C23CEA111418BF3CEA131400F0EC80EA
:1039B00081EA03051CEA111444EAD57418BF1CEA15
:1039C000131500F0C780A4EB05044FF0004545EA4D
:1039D000C12145EAC32341EA505143EA525304F15D
:1039E0007F74994204F500344FEAC0204FEAC222A6
:1039F00008BF904200F09C804FEA13650FF240161A
:103A0000765D4FEA134506FB05F7C7F1807706FBA5
:103A100007F74FEAD737A7FB03687642C8F5803827
:103A2000A7FB06CE38BFA8F1010807FB08E64FF058
:103A3000000EA6FB028CE6FB03CEDCF1000CCEF1FF
:103A4000004E38BFAEF1010EA6FB0C584FF0000738
:103A50004FF00005E6FB0E87A1FB08C6A0FB07CED2
:103A600016EB0E0645F10005E1FB076515F1E04E8A
:103A70007EBFA4F580345FEA46066D4116F18007EB
:103A800045F100054FEA17274FEA066647EA056742
:103A9000A6F1DE46B6F1805F4FEA15251FD93846FC
:103AA00024F0010C05EBC471BCF1FE6F01EB0C11AD
:103AB00002D8F0BCBDE8008124425CBF01F5801E45
:103AC0009EEAC47F02D4F0BCBDE80081244238D411
:103AD000F0BCA1F1C041BDE8004100F0EFB94FEAF0
:103AE000D22242EA43524FEAD323A7FB02864FEA8F
:103AF000D02040EA415007FB03661EEA0E0F4FEA52
:103B0000D12105FB026658BFA6EB0056B6EB005666
:103B10004FEA520E4EEAC37E18EB0E0E56EB530ED2
:103B2000BDD518EB02085E417F1C55F10005B6E7D4
:103B30004FF480154FF000074FF000064FF00008DB
:103B4000ADE7F0BC4FF0000001F1C04101F00041D1
:103B5000BDE8008111EA0C1F0CEA131500D00CE03F
:103B600013EA0C1F00F025804FF00000F0BC81EA42
:103B7000030101F00041BDE80081F0BCBDE8004157
:103B800081EA030100F09AB9F0BCBDE8004170B5CC
:103B900000F046F9097EFC3E00F007B881EA030117
:103BA0004FF0000001F00041704781EA030100F08E
:103BB00085B9F0BCBDE800414FF0000021497047D5
:103BC000FFFDFBF9F7F5F4F2F0EEEDEBE9E8E6E4E2
:103BD000E3E1E0DEDDDBDAD8D7D5D4D3D1D0CFCD69
:103BE000CCCBCAC8C7C6C5C4C2C1C0BFBEBDBCBBA2
:103BF000BAB9B8B7B6B5B4B3B2B1B0AFAEADACAB9D
:103C0000AAA9A8A8A7A6A5A4A3A3A2A1A09F9F9E76
:103C10009D9C9C9B9A999998979796959594939328
:103C2000929191908F8F8E8E8D8C8C8B8B8A8989BF
:103C30008888878786858584848383828281818042
:103C40000000FF070000F87F4FEA41034FEA53539B
:103C5000A3F58063D3F11E03C8BFD3F1210C0CDDA3
:103C60004FF0004242EAC12242EA505232FA03FCCB
:103C70008CEAE17CACEBE1707047102BC4BF0020F4
:103C8000704703F5787CBCF1FF3F04D06FF0004231
:103C900082EA2100704770B500F0C2F84992248092
:103CA00000207047F2E7B0FA80F310FA03F10AD06F
:103CB000C3F11D0303F580634FEA41504FEA0352FD
:103CC00002EBD12170474FF000007047DFF848C188
:103CD00070B51CEA111E1EBF1CEA13159EEA0C0FDC
:103CE00095EA0C0F00F06F8081EA030423EA4C137D
:103CF0004EEAD47E21EA4C1141F4801143F4801342
:103D0000AE44A1FB024CA0FB0365AEF17F7E3619E9
:103D100055EB0C05A1FB034C4CF10003A0FB021C6E
:103D200016EB0C06654153F10003094218BF46F03B
:103D3000010613F4007F0BD14FEA03314FEA05303F
:103D4000340341EA155140EA16506FF003020AE0CD
:103D50004FEAC3214FEAC520F40241EA555140EA37
:103D600056506FF0020202EB2E4201EB025585EA3B
:103D7000CE710AD05FEA440C18BF24F0004450F121
:103D8000000041F1000120EAD47040F2FE7C62455F
:103D900000D270BDA84214BF4FF080444FF04044A1
:103DA000002E08BF0024BEF1806FA8BFA1F1C04162
:103DB000BDE8704080F282804FF0000001F1C04108
:103DC00001F0004170479EEA0C0F0CEA131518BF72
:103DD00095EA0C0F06D04FF0000081EA030E0EF0BA
:103DE000004170BD00F01CF88900013E00F007B8EA
:103DF00000F009B84FEA430C5FEA5C5C08D081EA46
:103E0000030100F05BB84FEA410C5FEA5C5CF6D15D
:103E10004FF00000014970470000FF070000F87FE5
:103E20000EF1020E2EF0030E5EF8046B364205D43E
:103E3000012A43EB030515F5001F12D8012841EBB9
:103E4000010C1CF5001F0CD80ED14FEAD17C15F5E2
:103E5000001F0CEB4C0C0CF1020C08BF4CEBD37C9C
:103E600004E04FF0080C01E04FEAD37C0CEB4C056A
:103E700026FA05F606F00706B6F1040C06D20EEB9C
:103E8000860CBDE870404CF0010C6047DFE80CF098
:103E9000090B02024FF000414FF00000A1F5002194
:103EA00070BD19461046012851EB010418BFD4F526
:103EB000001484BF002001F0004170BD0808A0F587
:103EC00000114FEA3101704710B591EA030F48BF66
:103ED00083F000433FF5C0AC841A71EB030C07D2AA
:103EE00012198CF0004C43EB0C03001B61EB0C012E
:103EF000DFF8A4E14FEA1154A4EB135C1EEA430F70
:103F000018BF9EEA445F00F0B08023EA6E0352427D
:103F100021EA0451C3EB6E0338BF5B1EDCF1200EB7
:103F200025D322FA0CFE10EB0E0043FA0CFE41EBF7
:103F30000E01CCF1200E03FA0EFE10EB0E0051F133
:103F40000001CCF1200E29D412FA0EF201EB04513B
:103F5000BDE8104058BF7047401C1CBFB2F1004F75
:103F6000704700280CBF491C20F00100704712EB7D
:103F7000020E43EB030218BF4FF0010E4EEA42025D
:103F8000ACF1200CDCF11E0E54D943FA0CFE10EB00
:103F90000E0051F1FF31CCF11E0ED5D50EF1010E00
:103FA00012FA0EFE404141EB010101EB445C5FEA75
:103FB0005C5C10D910EBDE7001EB045138BFBEF130
:103FC000004FBDE8104018BF704700280CBF491CC7
:103FD00020F00100704730D24FEAD42C11F50011C7
:103FE00024F400641BD0B1FA81F20B3AA41AA41E87
:103FF000D2F12003914030FA03F31943904001EBD2
:10400000CC71002C01EB0451BDE81040A8BF7047F3
:1040100001F1C0414FF0000001F000417047B0FADB
:1040200080F310FA03F100D110BDE41A173C4805E3
:10403000C90AE4E701EB045110BD491001EB04513A
:10404000BDE810404FEA300002E04FF00001704739
:104050004A0008BF0042F8D0B2F5001F28BF7047E1
:1040600001F000414FF0000070479EEA445F07D026
:1040700011EA5E0FBDE8104004BF00210020704728
:10408000BDE8104070B5FFF7CBFE00BF40DFF63E45
:1040900083F00041104670470000E0FF43004FEA04
:1040A000D30C4FEA3C0C43401FBF40070CF160515A
:1040B00013F0FE4F70471CF0006F03D100200CF08E
:1040C000004170470CF0004343EA507010B540EADD
:1040D000CC0000F090FA00BF000000924FEA00010F
:1040E000FFF7ECBE4FF000414FF00000A1F50021BA
:1040F0007047000090EA010F48BF81F0004100F1D5
:104100000883421A3CBF801A89184FEAD0524FF0F8
:104110007F4C1CEA410FA2EBD15318BF9CEA026FFF
:1041200000F03B804FF0004C4CEA00204CEA0121AB
:1041300021FA03FC10EB0C0C1ED202F1FF325FEAF5
:104140001C2040EBC25038BF70471CF07F0F4FEA75
:10415000400C18BFBCF17F4F38BF7047C3F120033C
:10416000994008BF20F00100BCF17F4F38BF704775
:10417000A0F1C04000F085BA4FEA3C00000A40EBD5
:10418000C25028BF1CF0FF0F4FEA400CE6D018BF0A
:10419000BCF17F4F38BF7047EAE79CEA026F05D059
:1041A00010EA5C0F08BF00F00040704710B500F047
:1041B00022FA00BF64FBBE3E401058BFC0F1404031
:1041C000491058BFC1F140418142EFF30080704770
:1041D0004FF47F0C1CEAD0121EBF1CEAD11392EAE6
:1041E0000C0F93EA0C0F00F0858090EA010F48BF96
:1041F00042F4807240F4000C41F400002CF07F4146
:1042000020F07F4000B58142A2EB03020FF2081CB0
:10421000ACEB504EC0F100009EF800E04FEA4E0EAD
:1042200000FB0EFC38BF49004FEA2C1C02F5FA02D5
:104230000CFB0EF34FEACE1E4FEA112C4FEAC121C0
:104240000EEB635E42EB22420EFB0CFC4FEA1C536A
:1042500000FB03114FEA112C4FEA01310EFB0CFC5D
:104260004FEADC4C00FB0C11C14228BF09184CEB93
:1042700003335DF804EB10EB410143EBC250B2F5A0
:104280007C0F38BF704729D512F0F00F1CBF00F12A
:10429000C04000F00040704700818283848586879B
:1042A00088898B8C8D8E8F919293959697999A9CF5
:1042B0009D9FA0A2A3A5A7A8AAACAEB0B2B3B5B764
:1042C000B9BCBEC0C2C5C7C9CCCED1D4D7D9DCDF3A
:1042D000E2E6E9ECF0F3F7FAFE0000004FEA400CEA
:1042E0000CF1807CBCF17E4F28BF7047B0F1C0401C
:1042F00000F0C7B990EA010F0CEAD11348BF42F4AD
:104300008072624538BF634507D213F47F0F16D021
:1043100080EA010000F00040704710B500F06BF932
:10432000097EFC3E00F005B880EA010000F0004084
:10433000704780EA010000F0004000F0A2B912F4DA
:104340007F0F04BF0248704780EA010000F099B96E
:104350000000C07F50EA010C00F113801CF5000F33
:1043600058BFBCF5000F01D48842704707D710F53D
:10437000000F58BF11F5000F15D4884270478942CD
:1043800070471CF5000F04D5BCF5000FF7D581422E
:1043900070474FF0807C1CEB400F38BF1CEB410F87
:1043A00001D28142704710B500F025F992244900EE
:1043B0004FF000504FF08051FFF7FEBE41000B0E52
:1043C000D3F19E0208D950F400034FEA032323FAE5
:1043D00002F048BF4042704710B500F00CF900BF32
:1043E00049922480002070476FF0004282EA20004A
:1043F00070470000C10DD1F19E0206DB4FEA002399
:1044000043F0004323FA02F07047004207D54FEA19
:104410004001B1F1FE4F02D24FF00000704710B5DD
:1044200000F0E9F849922480002070476FEA2000EC
:104430007047000010F0004148BF4042B0FA80F3DE
:1044400010FA03F2C3F19D030BD051EAC35101EB03
:104450001220530638BF704700F1010008BF20F05A
:1044600001007047B0FA80F310FA03F2C3F19D0324
:104470000AD0D90501EB1220530638BF704700F16E
:10448000010008BF20F001007047000050EA010C55
:1044900000F113801CF5000F58BFBCF5000F01D4CC
:1044A0008842704707D710F5000F58BF11F5000F6D
:1044B00015D488427047894270471CF5000F04D517
:1044C000BCF5000FF7D5814270474FF0807C1CEBA4
:1044D000400F38BF1CEB410F01D28142704710B52D
:1044E00000F089F8922449004FF000504FF08051BD
:1044F000FFF762BE4FF47F0C1CEAD0121EBF1CEA0D
:10450000D11392EA0C0F93EA0C0F00F0478090EA67
:10451000010F48BF42F480724FF0004C4CEA00207B
:104520004CEA012102EB0302A0FB0113A2F50002F9
:10453000002918BF43F001035B0028BF4FEA330393
:1045400042EB22425FEA132C4CEBC2502EBFBCEB75
:10455000436FB2F57C0F70474FEA036CBCF1004F1C
:1045600008BF20F00100B2F57C0F38BF70470BD5B3
:1045700082F0FF0212F5803FC8BF704700F1C040D3
:10458000D8BF00F00040704700F5000C5FEA4C0C0B
:1045900048BF7047B0F1C04000F073B890EA010F17
:1045A0000CEAD11348BF42F48072624538BF6345BC
:1045B00004D280EA010000F00040704710B500F01E
:1045C0001AF800BF8900013E00F007B800F009B8F2
:1045D0005FEA410C5FEA1C6C08D080EA010000F041
:1045E00050B85FEA400C5FEA1C6CF6D14FF0004017
:1045F000A0F5800070470EF1020E2EF0030E5EF85B
:10460000044B244204D44FEA4102B2F17F4F11D847
:104610004FEA4003B3F17F4F0CD80ED14FEAD07C64
:10462000B2F17F4F0CEB4C0C0CF1020C08BF4CEBC1
:10463000D17C04E04FF0080C01E04FEAD17C0CEB98
:104640004C0324FA03F404F00704B4F1040C06D27A
:104650000EEB840CBDE810404CF0010C6047DFE825
:104660000CF0070802024FF00040A0F5800010BDDA
:104670000846420018BFD2F1807288BF00F00040A7
:1046800010BDFF2141EAD050C005704751EA000C2F
:1046900000F113801CF5000F58BFBCF5000F01D4CA
:1046A0008142704707D711F5000F58BF10F5000F72
:1046B00015D481427047894270471CF5000F04D51C
:1046C000BCF5000FF7D5884270474FF0807C1CEB9B
:1046D000410F38BF1CEB400F01D28842704780EA7F
:1046E000010081EA000180EA0100FFF7F8BE80F0D6
:1046F000004090EA010F7FF504AD81F0004100F029
:1047000008B8000090EA010F48BF81F000413FF572
:10471000F8AC421A04D882F00042A0EB0200114427
:104720004FEAD0524FF07F4C1CEA410FA2EBD1531D
:1047300018BF9CEA026F4AD04FF0004C4CEA0020B0
:104740004CEA012121FA03FCB0EB0C0C0FD412F05F
:10475000FE0F36D05FEA4C001DD5001240EBC25070
:1047600038BF70471CF03F0F18BF70470BE0A2F135
:1047700001025FEA1C2040EBC25038BF70471CF0BA
:104780007F0F18BF7047C3F12003994014BF401E2C
:1047900020F00100704780084FEA122308BF7047DD
:1047A000B0FA80FCA2EB0C02CCF1280C60FA0CF001
:1047B00093EA122F04BF00EBC25070474FEAC37058
:1047C0007047130A5FEADC1008BF7047F6E79CEAFF
:1047D000026F04D010EA5C0F08BF0020704710B5CC
:1047E000FFF709FF40DFF63E81F000407047000010
:1047F00000000000000000000000000000000000B9
:104800003F40000000000000000030004000300089
:104810004000000009000BC03D000BC03D00090036
:1048200018C024407FE0224031800000180024C0DE
:104830001B000D803240018003801C4027401C80FB
:104840000740004010006000000000000000000071
:104850000000000000001F80204040200000402099
:1048600020401F8000000000090006001F80060095
:1048700009000000040004003F8004000400000060
:1048800000100060000000000000000004000400B0
:1048900004000400040000000000004000000000CC
:1048A00000000000002001C00600380040000000A9
:1048B0001F802040204020401F800000000010404A
:1048C0003FC000400000000018C0214022402440AA
:1048D0001840000010802040244024401B8000002D
:1048E00002000D0011003FC0014000003C80244048
:1048F00024402440238000001F8024402440344072
:10490000038000003000200027C038002000000095
:104910001B802440244024401B8000001C0022C037
:10492000224022401F8000000000000008400000DC
:104930000000000000000000046000000000000013
:10494000000004000A001100208040400900090016
:10495000090009000900000000004040208011000B
:104960000A00040018002000234024001800000062
:104970001F802040274029401F400000004007C002
:1049800039000F0001C0004020403FC024402440B7
:104990001B8000001F80204020402040308000000D
:1049A00020403FC0204020401F80000020403FC0EA
:1049B00024402E4030C0000020403FC024402E0044
:1049C000300000000F0010802040224033800200A1
:1049D00020403FC0040004003FC020402040204051
:1049E0003FC02040204000000060202020203FC029
:1049F0002000200020403FC024400B0030C0204059
:104A000020403FC020400040004000C03FC03C006C
:104A100003C03C003FC0000020403FC00C402300CA
:104A20003FC020001F802040204020401F80000009
:104A300020403FC024402400180000001F80214077
:104A4000214020E01FA0000020403FC0244026005D
:104A500019C0004018C0244024402240318000008A
:104A6000300020403FC020403000000020003F8048
:104A7000004000403F80200020003E0001C00700B1
:104A800038002000380007C03C0007C03800000094
:104A9000204039C0060039C02040000020003840C6
:104AA00007C0384020000000304021C02640384078
:104AB00020C00000000000007FE0402040200000F7
:104AC000000070000C000380004000000000402047
:104AD00040207FE000000000000020004000200097
:104AE0000000000000100010001000100010001066
:104AF00000000000400000000000000000000280F4
:104B00000540054003C0004020003FC00440044071
:104B100003800000000003800440044006400000C1
:104B200000000380044024403FC000400000038098
:104B30000540054003400000000004401FC0244021
:104B400024402000000002E00550055006500420DB
:104B500020403FC00440040003C000400000044067
:104B600027C000400000000000100010041027E0E3
:104B70000000000020403FC00140070004C0044086
:104B8000204020403FC000400040000007C004001B
:104B900007C0040003C00000044007C00440040034
:104BA00003C0004000000380044004400380000074
:104BB000041007F00450044003800000000003804C
:104BC0000440045007F00010044007C002400400F5
:104BD00004000000000006400540054004C000003D
:104BE000000004001F800440004000000400078013
:104BF0000040044007C000400400070004C00180DA
:104C000006000400060001C0070001C00600000005
:104C1000044006C0010006C0044000000410071054
:104C200004E00180060004000000044005C00640C6
:104C3000044000000000000004007BE04020000071
:104C4000000000000000FFF0000000000000402015
:104C50007BE00400000000004000800040002000D5
:104C600020004000000000000000000000000000E4
:104C7000000000000000000000001FCC000C00003D
:104C80000000000000000800300060000800300054
:104C900060000000022003FC1E20022003FC1E20F6
:104CA0000220000000000E1811043FFF10840C7851
:104CB000000000000F0010840F3800C0077818842F
:104CC0000078000000780F8410C411240E9800E4CE
:104CD0000084000808006800700000000000000068
:104CE0000000000000000000000007E01818200489
:104CF00040020000000040022004181807E00000F5
:104D0000000000000240024001800FF001800240DC
:104D1000024000000080008000800FF800800080CA
:104D2000008000000001000D000E000000000000E7
:104D300000000000000000800080008000800080F3
:104D4000008000800000000C000C0000000000004B
:104D5000000000000000000600180060018006004E
:104D600018002000000007F00808100410040808CC
:104D700007F000000000080408041FFC0004000401
:104D80000000000000000E0C1014102410441184C8
:104D90000E0C000000000C181004110411041288FD
:104DA0000C700000000000E00320042408241FFC15
:104DB0000024000000001F981084110411041088C2
:104DC00010700000000007F0088811041104188812
:104DD0000070000000001C00100010FC13001C00FC
:104DE0001000000000000E3811441084108411449B
:104DF0000E38000000000700088C1044104408889A
:104E000007F00000000000000000030C030C00008D
:104E1000000000000000000000010106000000008A
:104E2000000000000000008001400220041008087B
:104E30001004000002200220022002200220022092
:104E400002200000000010040808041002200140A5
:104E50000080000000000E001200100C106C10808A
:104E60000F00000003E00C1813E4142417C40828F2
:104E700007D000000004003C03C41C40074000E4CD
:104E8000001C000410041FFC1104110411040E88FE
:104E90000070000003E00C18100410041004100847
:104EA0001C10000010041FFC10041004100408085B
:104EB00007F0000010041FFC1104110417C41004B3
:104EC0000818000010041FFC1104110017C0100086
:104ED0000800000003E00C181004100410441C78B3
:104EE0000040000010041FFC10840080008010842B
:104EF0001FFC10040000100410041FFC1004100418
:104F00000000000000030001100110011FFE10004E
:104F10001000000010041FFC110403801464181C0E
:104F20001004000010041FFC10040004000400041E
:104F3000000C000010041FFC1F0000FC1F001FFCE1
:104F40001004000010041FFC0C04030000E0101803
:104F50001FFC100007F008081004100410040808D3
:104F600007F0000010041FFC1084108010801080D7
:104F70000F00000007F0081810241024101C080A65
:104F800007F2000010041FFC1104110011C01130C1
:104F90000E0C000400000E1C110410841084104438
:104FA0001C3800001800100010041FFC1004100032
:104FB0001800000010001FF8100400040004100482
:104FC0001FF8100010001E0011E0001C007013807C
:104FD0001C0010001FC0103C00E01F0000E0103C4F
:104FE0001FC000001004180C163401C001C0163494
:104FF000180C100410001C00130400FC13041C0007
:10500000100000000804101C1064108413041C0419
:10501000101800000000000000007FFE4002400267
:1050200040020000000030000C0003800060001C03
:105030000003000000004002400240027FFE00002A
:105040000000000000000000200040004000400080
:10505000200000000001000100010001000100012A
:10506000000100010000400040002000000000009E
:1050700000000000000000980124014401440144A4
:1050800000FC000410001FFC0088010401040088DB
:105090000070000000000070008801040104010499
:1050A000008800000000007000880104010411085D
:1050B0001FFC0004000000F80144014401440144C5
:1050C00000C800000000010401040FFC11041104D9
:1050D00011001800000000D601290129012901C989
:1050E0000106000010041FFC0084010001000104FF
:1050F00000FC000400000104190419FC0004000471
:10510000000000000000000300010101190119FE68
:105110000000000010041FFC0024004001B4010C3A
:10512000010400000000100410041FFC000400042F
:1051300000000000010401FC0104010001FC010465
:10514000010000FC010401FC0084010001000104D5
:1051500000FC0004000000F8010401040104010443
:1051600000F80000010101FF00850104010400882E
:1051700000700000000000700088010401040105B7
:1051800001FF00010104010401FC0084010401008D
:1051900001800000000000CC01240124012401242E
:1051A0000198000000000100010007F8010401045B
:1051B00000000000010001F80004000400040108E0
:1051C00001FC0004010001800170000C001001606E
:1051D0000180010001F0010C003001C00030010C21
:1051E00001F0010000000104018C00740170018CC9
:1051F00001040000010101810171000E001801602D
:105200000180010000000184010C0134014401848B
:10521000010C0000000000000000000001003EFC46
:10522000400240020000000000000000FFFF0000FC
:10523000000000000000400240023EFC01000000AF
:10524000000000000000600080008000400040007E
:1052500020002000020000000000000042000000CA
:105260000000000033000000FC000000000000000F
:105270000800000000000000110000007F00000096
:10528000FE00000041000000000000004900000096
:105290007800000049000000480000007F00000086
:1052A00048000000490000004800000049000000DC
:1052B0007A00000041000000010000007F000000B3
:1052C000FE000000000000000000000000000000E0
:1052D000000000002000000000000000220000008C
:1052E000000000002200000000000000220000007A
:1052F00000000000FA000000000000002200000092
:105300000000000023000000FF0000002200000059
:105310000000000022000000000000002200000049
:1053200010000000FA000000080000002200000049
:105330001000000023000000E0000000200000003A
:10534000000000002000000000000000000000003D
:10535000000000000000000001000000000000004C
:10536000060000001F000000F8000000110000000F
:105370000000000011000000080000001100000003
:105380000400000011000000F80000001000000000
:10539000010000001000000002000000FF000000FB
:1053A0008400000010000000680000009000000071
:1053B000180000005000000064000000130000000E
:1053C00082000000100000001F000000000000002C
:1053D00000000000100000000800000010000000A5
:1053E0000C00000010000000080000001F0000007A
:1053F000F800000010000000100000001000000085
:105400001100000010000000120000000800000061
:105410000C0000000800000070000000FF00000009
:1054200080000000080000000200000008000000EA
:105430000100000008000000020000000F00000052
:10544000FC00000000000000000000000000000060
:1054500000000000080000004000000008000000FC
:10546000420000000800000081000000FF00000072
:10547000FE00000009000000000000000400000021
:1054800000000000190000000100000011000000F1
:105490002100000011000000D20000009700000071
:1054A000140000007100000008000000110000005E
:1054B0001400000011000000E200000015000000D0
:1054C00001000000190000000000000000000000C2
:1054D000000000004000000000000000400000004C
:1054E000000000004000000000000000400000003C
:1054F000000000004000000000000000400000002C
:10550000000000007F000000FF00000040000000DD
:105510000000000040000000000000004200000009
:1055200000000000410000000000000040000000FA
:10553000800000004000000060000000400000000B
:10554000000000004000000000000000000000001B
:10555000000000000000000001000000000000004A
:10556000060000007F000000F8000000440000007A
:105570004000000044000000400000004400000023
:105580004000000044000000400000007F000000D8
:10559000FE00000044000000400000004400000045
:1055A00040000000440000004200000044000000F1
:1055B000410000007F000000FE000000000000002D
:1055C00000000000000000000000000000000000DB
:1055D00000000000000000000000000000000000CB
:1055E0000100000000000000060000001F00000095
:1055F000F800000010000000800000001000000013
:10560000800000009000000080000000700000009A
:10561000800000001000000080000000100000006A
:10562000800000001000000080000000100000005A
:10563000800000001F000000C0000000000000000B
:10564000000000000000000000000000000000005A
:1056500000000000080000004000000008000000FA
:10566000420000000800000081000000FF00000070
:10567000FE0000000900000000000000040000001F
:1056800000000000190000000100000011000000EF
:105690002100000011000000D2000000970000006F
:1056A000140000007100000008000000110000005C
:1056B0001400000011000000E200000015000000CE
:1056C00001000000190000000000000000000000C0
:1056D0000000000002000000800000000C0000003C
:1056E00080000000F7000000FE0000002400000021
:1056F00084000000240000008A0000000100000077
:1057000064000000270000001800000039000000BD
:10571000E400000008000000220000002A00000051
:10572000A20000002A000000A2000000FF0000000C
:10573000FA0000002A000000A20000003E00000065
:10574000A20000000800000022000000000000008D
:105750000000000002000000000000000200000045
:1057600002000000420000000400000033000000BE
:10577000F80000000000000004000000010000002C
:1057800002000000110000000A00000011000000EB
:1057900032000000FF000000C20000001100000005
:1057A000020000001100000002000000FF000000E5
:1057B000FA000000110000000200000011000000CB
:1057C00002000000010000000200000000000000D4
:1057D00000000000000000000100000000000000C8
:1057E00002000000000000000400000000000000B3
:1057F00008000000000000003000000080000000F1
:10580000C000000047000000000000003800000059
:105810000000000007000000000000000000000081
:10582000C000000000000000300000000000000088
:105830000C0000000000000002000000000000005A
:105840000100000000000000010000000000000056
:105850000000000000000000000000000000000048
:105860004200000044000000440000004C00000022
:10587000C800000054000000D000000065000000D7
:10588000420000004500000041000000460000000A
:105890007E0000008400000040000000880000003E
:1058A0004000000090000000500000008100000057
:1058B0004800000080000000C4000000000000005C
:1058C0006200000000000000000000000000000076
:1058D0000000000004000000440000000C00000074
:1058E000E60000003500000044000000C600000093
:1058F000480000000C00000048000000000000000C
:105900000100000011000000020000001300000070
:105910000C00000015000000F000000099000000DD
:1059200000000000710000000000000011000000F5
:10593000FC00000015000000020000001300000041
:1059400002000000110000008E00000000000000B6
:105950000000000008000000200000000800000017
:10596000C00000000B00000000000000FF0000006D
:10597000FF00000009000000000000000A00000015
:105980008200000004000000220000000A00000065
:105990001A0000003200000082000000C200000077
:1059A0007200000032000000060000000A00000043
:1059B0001A00000004000000E200000002000000E5
:1059C00002000000020000000200000000000000D1
:1059D00000000000020000000200000022000000A1
:1059E000020000002400000002000000250000006A
:1059F000FA00000029000000520000003100000001
:105A0000520000002100000052000000FF000000D2
:105A10005200000021000000520000003100000090
:105A20005200000029000000520000002500000084
:105A3000FA00000024000000020000002200000024
:105A40000200000002000000020000000000000050
:105A500000000000000000000800000040000000FE
:105A60001000000040000000200000004000000086
:105A700040000000400000008000000041000000E5
:105A80000000000042000000000000004F00000085
:105A9000FF00000070000000000000004200000055
:105AA0000000000041000000000000004000000075
:105AB00080000000400000004000000040000000A6
:105AC00030000000000000000000000000000000A6
:105AD0000000000002000000010000004200000081
