:020000040800F2
:10000000E80A002095010008990100089B010008FA
:100010009D0100089F010008A101000800000000E8
:10002000000000000000000000000000A301000824
:10003000A501000800000000A7010008A9010008B0
:10004000AB010008AB010008AB010008AB010008E0
:10005000AB010008AB010008AB010008AB010008D0
:10006000AB010008AB010008AB010008AB010008C0
:10007000AB010008AB010008AB010008AB010008B0
:10008000AB010008AB010008AB010008AB010008A0
:10009000AB010008AB010008AB01000861150008C6
:1000A000AB010008CB160008AB010008AB0100084B
:1000B000ED140008AB010008AB010008AB0100081B
:1000C000AB010008AB010008AB010008AB01000860
:1000D000AB010008AB010008AB010008AB01000850
:1000E00091150008AB010008AB01000800F002F810
:1000F00000F03AF80AA090E8000C82448344AAF188
:100100000107DA4501D100F02FF8AFF2090EBAE885
:100110000F0013F0010F18BFFB1A43F0010318473B
:10012000D08B0000F08B0000103A24BF78C878C153
:10013000FAD8520724BF30C830C144BF04680C60ED
:10014000704700000023002400250026103A28BF35
:1001500078C1FBD8520728BF30C148BF0B60704739
:100160001FB51FBD10B510BD03F011F81146FFF704
:10017000F7FF00F02BF803F02FF803B4FFF7F2FFBE
:1001800003BC00F015FA000030BF72B662B680F30F
:100190000888704708480047FEE7FEE7FEE7FEE7ED
:1001A000FEE7FEE7FEE7FEE7FEE7FEE70348044959
:1001B000044A054B70470000ED000008E8040020E9
:1001C000E80A0020E8060020E8060020092000F0E8
:1001D00096F9482000F036F8022000F07BF9012063
:1001E00000F078F94FF47A7000F064F84FF47A7008
:1001F00000F060F800F05AFA01F08EF900F0BAFD54
:100200004FF4FA31482000F0EDF9002141F61F408B
:1002100001F054F801F008F900F050FE41F61F41DA
:10022000C72001F00BF809E002F066FE0120044946
:10023000087000BF024800780028FBD1F4E70000F6
:10024000020000204FF0E021096921F004014FF085
:10025000E0221161C21700EB5272C2F3C702234BB6
:100260001A701946097801EB4102C2EBC1114FF631
:10027000FF7202EAC1011E4A1180704701461B4A03
:1002800012784A434FF0E0235A6100229A6101221A
:100290001A6100BF4FF0E022106900F001021AB1AC
:1002A00000F48032002AF5D000224FF0E0231A61DA
:1002B0009A61704701460E4A12884A434FF0E02384
:1002C0005A6100229A6101221A6100BF4FF0E022B8
:1002D000106900F001021AB100F48032002AF5D052
:1002E00000224FF0E0231A619A6170471800002045
:1002F0001A000020A34A0A400243A34B1A60704729
:100300000146072323EA010212029F4B1B1D1868B6
:100310004FF6FF0318409D4B184310439A4B1B1D8B
:10032000186070472DE9F0410746884614461D467F
:100330002846FFF7E5FFC5F1040007FA00F60F2095
:10034000284100EA0800064306F00F06E21704EB16
:10035000D2625211920002F1E022D2F8002121462D
:10036000E31704EBD3635B11A4EB431C012303FAF3
:100370000CF31A432046E31704EBD3635B119B0095
:1003800003F1E023C3F800218148005D40EA061034
:100390007F490855BDE8F08170B504460B46CE177D
:1003A00001EB9676C6F38700CE1701EB9676B61072
:1003B000A1EB8606B606350E764B9B6943F001032A
:1003C000744EB3614FEAB63353F820300F26AE4077
:1003D000B343714E46F82030334653F8203004FAC8
:1003E00005F61E436C4B43F820606C4B1B680126DE
:1003F0008E403343694E336002F0010343B1674BD3
:100400000C331B6801268E403343644E0C36336038
:1004100002F0020343B1614B08331E6801238B4095
:100420001E435E4B08331E6070BD00B50020594965
:100430000861C8601420486100208861C8610846CE
:10044000006840F0010008600846406854490840D0
:100450005049486008460068524908404D490860C4
:100460000846006820F4802008600846406820F4B0
:10047000FE0048600020886000214FF00060FFF718
:1004800039FF00BD10B540480830006840F0040056
:100490003D49083108603F48C06940F080503D49FF
:1004A000C8614148406840F480703F494860084650
:1004B000006840F0040008600846006840F0020050
:1004C0000860FFF761FE10BD3048001D2E49091D70
:1004D00008607047014649062E4A926942F00102BF
:1004E0002C4B9A612C4A083A526822F0E0622A4B5F
:1004F000083B5A601A4652680A435A60704730B542
:1005000004460025FFF791FF2248006840F4803040
:100510002049086000BF1F480068400C0028FAD03E
:100520004FF480601B494860A01EC4B20846406872
:1005300040EA844048600846406840F480304860A3
:100540001A48006840F032001849086011480068F5
:1005500040F080700F49086000BF0E480068400EF0
:100560000028FAD00B48406840F002000949486072
:1005700005E008484068C0F3870505F00305022D33
:10058000F7D130BD80FFFF1F08ED00E00000FA0545
:1005900000E400E0001002400800014000040140B7
:1005A0000000FFF8FFFFF6FE007000400020024050
:1005B000014600BF704700BF384A128802F040026F
:1005C000002AF9D0C2B2354B1B1D1A80704733493F
:1005D000091D088000BF3149098801F04001002948
:1005E000F9D070472DE9F05F05460E46300103F063
:1005F000C7FC81462A4905FB01F003F0C1FC824695
:10060000494603F0A7FB0746384603F081FC84B255
:10061000204603F0B5FC8346394603F0F6FD8246DA
:100620004FF0834103F0F4FC814603F071FC8046F7
:100630004FF6FF7000EA041404EB080084B2194876
:10064000806940F00400174988610846806940F4D9
:10065000804088611448006820F47F601249086077
:100660000846006840F40B6008600E48C06840F41B
:1006700080400C49C8600846C06820F48040C860CB
:10068000064808300480001D008842F20C0108432F
:1006900002490C310880BDE8F09F0000003801409D
:1006A00040420F00001002400408014017488069D2
:1006B00040F00400154988611548006820F4702056
:1006C000134908600846006840F44030086010484C
:1006D0000C30006840F010000D490C310860704784
:1006E00018B900210B4A11600FE00B490968491C39
:1006F000094A1160814208D106490968C943074A7D
:10070000C2F890110021044A1160704700100240A5
:1007100000080140900121421C00002000002142FD
:100720008448806940F004008249886182480068FA
:1007300020F47F20804908600846006840F40820C3
:100740000860081F00687D4908407B49091F086050
:10075000084600687A4908437749091F08607648C7
:100760000830006840F0040073490831086008460A
:10077000006840F0800008600846006840F02000F3
:1007800008600846006840F4C050086070470146A1
:100790006C48006828B96C480088401C6A4A108080
:1007A00002E00020684A10806648006828B967485F
:1007B000007810B90120654A107065480078B0B91A
:1007C00062480078012807D162480078401C614ADD
:1007D000107001205E4A10705E480078022806D131
:1007E00000205C4A10705C4A108002207047554817
:1007F0000068012804D10020544A1070544A107037
:100800005448007801281CD153480088401C524AA3
:1008100010801046008888420ADD4B4800888842D4
:1008200006DA00204B4A10704B4A10800120DDE7A9
:1008300045480088884204DD0020464A1070464A38
:1008400010800020D2E710B54448007818B33D4826
:100850000C30006838B13B482430006818B1394882
:1008600028300068B8B900203C4908703220FFF7F2
:1008700021FD34480C30006808B9052010BD31480E
:100880002430006808B90B20F8E72E4828300068AB
:1008900020B90C20F2E70120304908700020EDE774
:1008A0002F48008848B927481430006828B92D48D7
:1008B0000088401C2B49088002E00020294908805C
:1008C00028480088142807DD0120254908800020D9
:1008D000244908800120704721480088012802D15E
:1008E00000201F4908800020F5E71F48008840B914
:1008F0001448006828B91D480088401C1B4908801E
:1009000002E000201949088018480088C82807DD3F
:1009100001201549088000201449088001207047F3
:1009200011480088012802D100200F4908800020CA
:10093000F5E700000010024004080140FFF00F0F2F
:1009400000088080080121422600002020000020AD
:100950002100002022000020240000202800002088
:100960002C0000202A000020300000202E00002053
:1009700010B50A461AB10123F74C236002E00023A8
:10098000F54C2360002114E00023F44C236000F0B8
:1009900080031BB10123241F236003E00023EF4CDD
:1009A000241F23600123ED4C23604306180E4B1CCB
:1009B000D9B20829E8DB0123E74C236010BD30B52C
:1009C00000241CE004F1B001C8B20021FFF7D0FF01
:1009D00000210846FFF7CCFF00211020FFF7C8FFD9
:1009E000002508E0DE4901EBC501085D0121FFF7A4
:1009F000BFFF681CC5B2802DF4DB601CC4B2082C9C
:100A0000E0DB30BD00B500218D20FFF7B1FF0021F4
:100A10001420FFF7ADFF0021AF20FFF7A9FF00BDB5
:100A200000B500218D20FFF7A3FF00211020FFF764
:100A30009FFF0021AE20FFF79BFF00BD30B50024D3
:100A40000CE0002506E00020C54901EBC501085572
:100A5000681CC5B2802DF6DB601CC4B2082CF0DB2C
:100A6000FFF7ADFF30BDF0B5144600267F2801DC4E
:100A70003F2900DDF0BD0B46CF1701EB5777FF1084
:100A8000C7F10707FAB2CF1701EB5777FF10A1EBB9
:100A9000C707FDB2C5F107070123BB40DEB24CB169
:100AA000AF4B03EBC0039B5C3343AD4F07EBC00779
:100AB000BB5408E0AA4B03EBC0039B5CB343A84FB5
:100AC00007EBC007BB5400BFD4E72DE9F04F8046C9
:100AD0000C4615461E46A346A5F12000C5B20027C8
:100AE0003EE00C2E07D105EB45009E4901EB80004E
:100AF00010F8079004E09C4800EB051010F80790F0
:100B00004FF0000A26E009F0800028B12146404657
:100B1000099AFFF7A8FF09E0099808B9012000E049
:100B20000020024621464046FFF79DFF4FEA4960FC
:100B30004FEA1069601CC4B2A4EB0B00B04205D1AF
:100B40005C4608F1010000F0FF0806E00AF1010030
:100B500000F0FF0ABAF1080FD5DB00BF781CC7B25E
:100B6000B742BEDBBDE8F08F10B50246012000E0C1
:100B700050430B1EA1F10104E1B2F9D110BD2DE9E2
:100B8000FF4F81B0074691461E460E9D4FF0000A6A
:100B9000002439E0301B401EC1B20A20FFF7E4FFF9
:100BA000B9FBF0F00A21B0FBF1F201FB1208BAF137
:100BB000000F16D1701EA04213DDB8F1000F0ED148
:100BC0000120AB4605EBDB71491001FB047100907D
:100BD000C8B22B4620220299FFF777FF12E04FF0B0
:100BE000010A0120AB4605EBDB71491001FB0471E2
:100BF0000090C8B208F13001CAB22B460299FFF743
:100C000064FF00BF601CC4B2B442C3DB05B0BDE8E2
:100C1000F08F78B505460E46144618E07A2D03DDB0
:100C2000002506F11000C6B23A2E04DD002005466C
:100C30000646FFF703FF0120009022780C2331467F
:100C40002846FFF742FF05F10800C5B2641C207872
:100C50000028E3D178BD2DE9F04F07460C469046B9
:100C60001D46A346002631E0404800EBC81010F8AE
:100C700026904FF0000A23E009F0800028B12A46B0
:100C800021463846FFF7EFFE08E00DB9012000E0ED
:100C90000020024621463846FFF7E5FE4FEA49604C
:100CA0004FEA1069601CC4B2A4EB0B00102803D1FA
:100CB0005C46781CC7B206E00AF1010000F0FF0AAA
:100CC000BAF1080FD8DB00BF701CC6B2202ECBDBF8
:100CD000BDE8F08F2DE9F04F07460C4690461D46C3
:100CE000A346002633E0C8EBC800214901EB001001
:100CF00010F826904FF0000A23E009F0800028B198
:100D00002A4621463846FFF7AEFE08E00DB901201D
:100D100000E00020024621463846FFF7A4FE4FEAD5
:100D200049604FEA1069601CC4B2A4EB0B001028A4
:100D300003D15C46781CC7B206E00AF1010000F05E
:100D4000FF0ABAF1080FD8DB00BF701CC6B21C2E18
:100D5000C9DBBDE8F08F0000BC0121429481214233
:100D6000880000200C43000880470008704D0008F0
:100D70007058000810B54A48806940F0080048499A
:100D80008861484800684849084046490860084664
:100D9000006846490843434908604148806940F07B
:100DA00004003F4988614248006820F07040404993
:100DB00008600846006840F00050086000203D4987
:100DC00008606420FFF776FA01203B49C1F88C01E6
:100DD0000021AE20FFF7CCFD0021D520FFF7C8FD94
:100DE00000215020FFF7C4FD0021A820FFF7C0FD1F
:100DF00000213F20FFF7BCFD0021D320FFF7B8FD05
:100E000000210846FFF7B4FD00214020FFF7B0FDA8
:100E100000218D20FFF7ACFD00211420FFF7A8FD75
:100E200000212020FFF7A4FD00210220FFF7A0FDF4
:100E30000021A120FFF79CFD0021C020FFF798FDB5
:100E40000021DA20FFF794FD00211220FFF790FD2A
:100E500000218120FFF78CFD0021EF20FFF788FDA6
:100E60000021D920FFF784FD0021F120FFF780FD4C
:100E70000021DB20FFF77CFD00213020FFF778FD0B
:100E80000021A420FFF774FD0021A620FFF770FDCC
:100E90000021AF20FFF76CFDFFF7D0FD10BD000073
:100EA00000100240000C0140FF0F00FF0020220054
:100EB000040801408C8121420080214210B5D548B0
:100EC000806940F00400D3498861D348006820F469
:100ED0007040D14908600846006820F070600860E2
:100EE000CC48806940F4C060CA4988610846C0683F
:100EF00040F40070C8600846C06820F40070C86004
:100F00000846406820F4404048600846406840F485
:100F100000404860C1480068C1490840BF490860B6
:100F20000846006808600846006820F48070086081
:100F3000081D006820F00200091D086008460068CE
:100F400020F4602008600846006840F460200860D3
:100F50000846006840F4801008600846006820F4E5
:100F600000600860AD482830006820F47000AB498C
:100F7000283108600846006800200860A7480C3047
:100F8000006820F47040A5490C31086008460068EC
:100F900008600846006820F0706008600846006835
:100FA00040F4E01008609D48001D006840F001001A
:100FB0009A49091D08600846006840F0080008606A
:100FC00000BF9648001D006800F008000028F8D116
:100FD0009248001D006840F004009049091D086017
:100FE00000BF8E48001D006800F004000028F8D102
:100FF0000120FFF75FF98748C06840F480608549A9
:10100000C8600846C06820F48060C8600846406830
:1010100020F4404048600846406840F40040486082
:10102000804800687E4908407E490860084600689C
:1010300008600846006820F480700860081D006899
:1010400020F00200091D08600846006820F46020B6
:1010500008600846006840F46020086008460068A0
:1010600040F4801008600846006820F400600860C2
:101070006C482830006820F470006A492831086004
:10108000084600680020086066480C30006820F4BC
:10109000704064490C3108600846006808600846E2
:1010A000006820F0706008600846006840F4E010B6
:1010B00008605C48001D006840F001005949091DA6
:1010C00008600846006840F00800086000BF554806
:1010D000001D006800F008000028F8D15148001DEC
:1010E000006840F004004F49091D086000BF4D48EA
:1010F000001D006800F004000028F8D10120FFF76F
:10110000D9F810BD014645483030006820F01F0076
:10111000424A3032106010460068084310603F4871
:10112000001D006840F480003C4A121D106000BFA2
:101130003A48001F006800F002000028F8D0374845
:101140004830006880B27047014636483030006849
:1011500020F01F00334A3032106010460068084308
:1011600010603048001D006840F480002D4A121DB8
:10117000106000BF2B48001F006800F0020000282C
:10118000F8D028484830006880B270472DE9F04F09
:1011900087B00620FFF7D8FF019002F0D4FA80460E
:1011A0004FF06632204B02F01DFB00221F4BCDE9B1
:1011B000020102F017FB00221D4BCDE9040102F0F1
:1011C00011FB064600221B4B02F0FAF804460022EF
:1011D000194B02F0F5F8824602F086FA069006985E
:1011E00007B0BDE8F08F2DE9F04107460C46002519
:1011F000002608E03846FFF785FF0544C820FFF7C2
:101200003DF8701CC6B2A642F4DBB5FBF4F080B228
:10121000BDE8F081001002400008014004240140B4
:10122000FFFFF0000428014066660A4000002640E7
:10123000000059400000F03F0000B04070B5054686
:101240000C461348806940F40060114988611148D8
:101250000580001F04800F482038008840F00100FE
:101260000C49203908800846008840F0400008807A
:1012700008482C38008840F0010006492C390880C5
:101280000223192203210120FFF74CF870BD000052
:10129000001002402C2C01402F48806940F00800CB
:1012A0002D4988612D48006880B22C4908600846A5
:1012B00000682B49084329490860704700B5034678
:1012C0000A46FFF7E9FF2448C06940F002002249BE
:1012D000C8610846806940F0080088611F48001F07
:1012E000006820F0FF001D49091F086008460068DB
:1012F00040F0BB0008601B480380001F02801948B3
:101300001038008840F4C04016491039088008465B
:10131000008840F0600008800846008840F40060C3
:1013200008800846008840F008000880081D0088F2
:1013300040F48050091D08800846008840F4807001
:101340000880802007492C3908800846008840F032
:101350000100088000BD000000100240040C0140A4
:10136000000022222C04004010B56648C06940F0FD
:1013700001006449C8610846806940F00400886142
:101380006148006820F0FF005F4908600846006877
:1013900040F044000860C804808940F00100C9049E
:1013A00088810846808940F04000888101231C2202
:1013B00003211846FEF7B6FF00204FF08041088554
:1013C0004FF6FF7088850846008820F4407008803A
:1013D0000846008820F0600008800846008B40F036
:1013E000010008830846008B40F48070088308469B
:1013F000008C20F0020008840846008C20F02000B9
:1014000008840846008B40F03000088308460089B5
:1014100040F00300088142F2107088848006008842
:1014200040F00100088010BD3648C06940F004005B
:101430003449C8610846806940F008008861334833
:10144000006820F07F40314908600846006840F09D
:101450008840086000202E4908804FF6FF70091D63
:1014600008802B482838008820F440702849283903
:1014700008800846008820F0600008802448103862
:10148000008840F030002249103908802048203878
:10149000008840F003001E492039088042F2107095
:1014A0001B49091F08801A482838008840F00100AD
:1014B00017492839088070470146022904D00329BA
:1014C00007D004290ED108E04FF08042928C10B270
:1014D0000AE0104A128810B206E00D4A121F128864
:1014E00010B201E0002000BF00BF70474FF0804005
:1014F000008A4FF08040008A20F001004FF08041C8
:10150000088270470010024000080140000C0140B2
:10151000280800402404004010B5FFF701F901221B
:1015200007210020FEF738FF012205210020FEF7E9
:1015300033FF01220B210020FEF72EFF01220C2198
:101540000020FEF729FF0223172219461846FEF74E
:10155000E9FE0223282219461846FEF7E3FE10BDD5
:1015600010B50520FEF7A6FE1248006838B91248EB
:10157000007808B9012000E000200F4908700D48EC
:101580000830006820200D4908608020086010BDE8
:1015900010B50520FEF78EFE06481C30006808488E
:1015A000D0F82C014FF40060044908604000086046
:1015B00010BD00001401214200000020140401406D
:1015C000000021422DE9F0413220FFF7E0F8FD490B
:1015D00008700846007801280DD1FB48006802F029
:1015E0001FFB0646F94AFA4B01F036FE044601F0AD
:1015F00001FEF5490860F348007802280DD1F24851
:10160000006802F00DFB0646F04AF14B02F01EFAAC
:10161000044601F0EFFDEC490860BDE8F0810146A9
:10162000002901DA484200E00846704700B502464A
:10163000002A07DA0120E74908600020E649C1F8DE
:10164000B40106E00020E34908600120E249C1F846
:10165000B4011046FFF7E3FFE049088000BD41F602
:10166000F420DF4909684242914202DA4142DC4AF1
:101670001160DB490968814201DDD9490860704782
:101680002DE9F0410446D749204602F0BEFD074649
:1016900002F022FC0546284602F05AFC0746D249D1
:1016A00002F0B6FC06460021204602F07DFD09D876
:1016B000CE49204602F078FC04D8CD49304602F0ED
:1016C000AFFD06463046BDE8F0812DE9FF5FC94811
:1016D000008800F0010000287DD0C648008820F076
:1016E0000100C4490880C448007801280BD1C348D0
:1016F0000078401CC0B2C1490870032803D1002003
:101700000870BD4908700420FFF7D6FEBC49086088
:10171000BC48006802F084FA06460F46BA490968D8
:10172000B74A1268881A02F013FCB849009002F018
:1017300011FB019002F074FAB54AB64BCDE90201F3
:1017400002F050F88246B44AB44B02F04BF880469F
:1017500032463B4601F034FE044601F04BFDB049F1
:101760000860B04801684FF07E5002F059FD06460F
:10177000AD480168304602F04BFC0446A8480168B9
:10178000A848006802F044FC0546214602F074FABD
:10179000A349086008460068A34908609A49096897
:1017A000974A1268881A02F0D3FB8346974902F0E1
:1017B000D1FA824602F034FA0646954A954B02F079
:1017C00011F88046944A954B02F00CF8CDE90201DD
:1017D0009648006800E0E9E102F022FACDE9000154
:1017E000DDE9022301F038FD044601F003FD8F49D5
:1017F000086083480068844908600A210320FFF7D5
:10180000F2FC044602F0BCFB894908600846006807
:10181000FFF736FF8146874902F09CFA044602F042
:10182000FFF907467C4A7D4B01F0DCFF054601F0DD
:10183000E1FC81490860814801687F48006802F046
:10184000EFFC04466F480168204602F083FA7C49A9
:101850000860744801684FF07E5002F0E1FC0646D3
:1018600078480168304602F0D3FB044674480168AA
:101870006C48006802F0CCFB0546214602F0FCF9FA
:101880006F490860084600686E4908606A48006849
:101890006A4908606848006802F0C2F904466A4A6A
:1018A0006A4B02F09DF85ED26348006802F0B8F916
:1018B0000446654A664B01F059FF54D265480078EA
:1018C000642804DA63480078401C62490870614863
:1018D0000078642807D16048524908605D48007864
:1018E000401C5C490870564801685C48006802F07A
:1018F0008FFB0746504801685948006802F088FB92
:101900008046474801685748006802F081FB8146DD
:101910002D4801684548006802F0AEF982465248F9
:101920000168504602F074FB0646494602F0A4F9ED
:101930000546414602F0A0F90446394602F09CF9FA
:1019400080F000404949086049494848006802F071
:1019500001FA0546474902F05BFB044602F0BCFA77
:101960001F4908600EE14FF07E502E4908600020AC
:101970003849087040480078002822D02B48006879
:1019800002F04EF90446114A114B02F029F804D234
:101990004FF0FF30394908600FE02448006802F03A
:1019A0003FF90446094A364B01F0E0FE05D200201B
:1019B0003449087001203149086000211B48006843
:1019C00062E07FE0840000206C0000209A999999E1
:1019D0009999B93FB08121420080214240040040E2
:1019E0000C00002000C04145EA04B43D008083445F
:1019F0000000B443102C0140020000200100002030
:101A0000080000203400002068000020000082440C
:101A10003BDF4F8D976EA23FF1D4C853FB210940A5
:101A20004000002080000020500000203C000020EA
:101A3000140000200000344344000020380000203F
:101A400048000020540000208126C286A757D6BF38
:101A5000A757D63F71000020CDCCCC3E64000020BB
:101A6000600000205C000020580000204C00002096
:101A7000000040410000E145750000207800002092
:101A80009999B9BF7400002002F08EFB01D20120A9
:101A900000E000206A49097809B9012100E000212D
:101AA000084038B100206749086067490870012084
:101AB00066490870634800684FF4616148436449AF
:101AC00008605FE06148007800285BD061480078DA
:101AD000012804DA5F480078401C5E4908705E49BE
:101AE0005E48006802F060FB12D25D495B48006806
:101AF00002F05AFA0CD25B48006802F091F80446F2
:101B00000022594B01F0B4FD02D1584855490860F4
:101B100000215248006802F047FB30D24FF08A4162
:101B20004E48006802F040FA29D24A48007801285D
:101B300025D14F480078322804D100204D49087043
:101B40004B4908704B48007828B149480078401C40
:101B50004749087016E048494048006802F060FBB9
:101B600006464048006880F000453146284602F0AD
:101B70004FFA044602F0B0F93549086002E000204F
:101B800033490860FFF76BFD3C48007820B93048C6
:101B90000068FFF74BFD02E00020FFF747FD3748E4
:101BA0000078012802D10020FFF740FDFFF70AFD71
:101BB0003248007810B96420FEF792FDFFF7E6FA8C
:101BC0002F490860002004B0BDE8F09F10B504461E
:101BD0000021204602F0E8FA01D2012010BD0021C8
:101BE000204602F0E1F902D24FF0FF30F6E7002084
:101BF000F4E770B5054621480078012809D11F494E
:101C00000870012400201F4908601F49C1F8B00175
:101C100000E000241D491148006802F0C5FA08D20E
:101C20001B490E48006802F0BFF902D2B5F52F7FBC
:101C300003DA0120114908700124204670BD00001C
:101C4000740000207800002075000020760000203D
:101C50000C00002072000020009024451400002099
:101C6000009064457C00002000000C4000002040F3
:101C7000730000207000002000007F44000000205E
:101C800010000020B48121420080214200802245C2
:101C90000000614500B585B0FEA200210846FEF7B0
:101CA000B8FFFDA200212420FEF7B3FF0021FB486E
:101CB000006802F079F95CD2F9A200212E20FEF72B
:101CC000A8FFF648006802F007F9404204900C2093
:101CD0000123009000213620049AFEF750FFF1A264
:101CE00000213E20FEF795FFEC48006802F0F4F872
:101CF000009002F02DF90190E8480168019802F087
:101D000084FA80F00040E849029002F081F90390E3
:101D100002F0FEF804900C200223009000214420E1
:101D2000049AFEF72CFFE1A200215C20FEF771FF70
:101D3000DA48006802F0D0F8019002F009F9029048
:101D4000D6480168029802F060FA80F00040D64957
:101D5000039002F05DF9D649049002F025F95FD2B4
:101D60000C2001230022114600904420FEF707FFBB
:101D700056E0D0A200212E20FEF74BFFC748006896
:101D800002F0AAF804900C200123009000213620D4
:101D9000049AFEF7F4FEC3A200213E20FEF739FFAD
:101DA000BE48006802F098F8009002F0D1F8019067
:101DB000BA480168019802F028FABB49029002F083
:101DC00027F9039002F0A4F804900C20022300905D
:101DD00000214420049AFEF7D2FEB4A200215C2028
:101DE000FEF717FFAD48006802F076F8019002F0A8
:101DF000AFF80290A9480168029802F006FAAA49D1
:101E0000039002F005F9AA49049002F0CDF807D238
:101E10000C2001230022114600904420FEF7AFFE63
:101E200001236E220A210020FEF754FF01236F22B6
:101E300008210846FEF74EFF012370220A211020D8
:101E4000FEF748FF012371220A211820FEF742FF06
:101E5000012372220A212020FEF73CFF8EA20A21D4
:101E60002420FEF7D6FE00219348006802F09CF87B
:101E70005CD28BA20A212E20FEF7CBFE8E48006892
:101E800002F02AF8404204900C20012300900A211D
:101E90003620049AFEF773FE82A20A213E20FEF746
:101EA000B8FE8548006802F017F8009002F050F87C
:101EB000019081480168019802F0A7F980F0004084
:101EC0007949029002F0A4F8039002F021F80490FE
:101ED0000C20022300900A214420049AFEF74FFEB2
:101EE00076A20A215C20FEF794FE7348006801F098
:101EF000F3FF019002F02CF802906F4801680298FD
:101F000002F083F980F000406749039002F080F806
:101F10006749049002F048F85FD20C2001230022A8
:101F20000A2100904420FEF72AFE56E061A20A2111
:101F30002E20FEF76EFE6048006801F0CDFF049091
:101F40000C20012300900A213620049AFEF717FE88
:101F500054A20A213E20FEF75CFE5748006801F0BB
:101F6000BBFF009001F0F4FF019053480168019815
:101F700002F04BF94C49029002F04AF8039001F04C
:101F8000C7FF04900C20022300900A214420049AE9
:101F9000FEF7F5FD49A20A215C20FEF73AFE46480D
:101FA000006801F099FF019001F0D2FF02904248D1
:101FB0000168029802F029F93B49039002F028F8E1
:101FC0003B49049001F0F0FF07D20C2001230022CE
:101FD0000A2100904420FEF7D2FD01236C22152136
:101FE0000020FEF777FE2CA214212420FEF711FE1C
:101FF00000213348006801F0D7FF78D228A21421CD
:102000002E20FEF706FE2E48006801F065FF4042D4
:1020100004900C200123009014213620049AFEF72E
:10202000AEFD20A214213E20FEF7F3FD24480068F7
:1020300001F052FF009001F08BFF019020480168F1
:10204000019802F0E2F880F000401749029001F098
:10205000DFFF039001F05CFF04900C20022300904E
:1020600014214420049AFEF78AFD16A214215C2054
:10207000FEF7CFFD1248006801F02EFF019001F03D
:1020800067FF02900E480168029802F0BEF880F0E7
:10209000004019E0780000003A0000003C000020F9
:1020A0002D0000002E0000000000C8426D0000005E
:1020B0000000204120000000400000206D2F730030
:1020C0004400002072616400FE49039001F0A0FF0B
:1020D000FD49049001F068FF63D20C200123002227
:1020E000142100904420FEF74AFD5AE0FFE7AFF2CA
:1020F0003C0214212E20FEF78CFDF448006801F00C
:10210000EBFE04900C200123009014213620049A49
:10211000FEF735FDAFF2740214213E20FEF779FD83
:10212000EA48006801F0D8FE009001F011FF01902C
:10213000E6480168019802F068F8E249029001F06F
:1021400067FF039001F0E4FE04900C20022300904E
:1021500014214420049AFEF712FDAFF298021421D4
:102160005C20FEF756FDD948006801F0B5FE0190ED
:1021700001F0EEFE0290D5480168029802F045F8A1
:10218000D049039001F044FFCF49049001F00CFFC7
:1021900007D20C2001230022142100904420FEF7D6
:1021A000EEFC01236C221F210020FEF793FD01238A
:1021B0006F221C210820FEF78DFD012370221E21B5
:1021C0001020FEF787FD012371221E211820FEF743
:1021D00081FD012372221E212020FEF77BFDAFF23C
:1021E00048121E212420FEF714FD0021B848006883
:1021F00001F0DAFE5ED2AFF258121E212E20FEF759
:1022000008FDB348006801F067FE404204900C20CE
:10221000012300901E213620049AFEF7B0FCAFF295
:102220007C121E213E20FEF7F4FCA948006801F054
:1022300053FE009001F08CFE0190A54801680198C2
:1022400001F0E3FF80F000409E49029001F0E0FEC3
:10225000039001F05DFE04900C20022300901E21EB
:102260004420049AFEF78BFC9AA21E215420FEF70C
:10227000D0FC9748006801F02FFE019001F068FE45
:10228000029093480168029801F0BFFF80F000407F
:102290008C49039001F0BCFE8B49049001F084FE50
:1022A00061D20C20012300221E2100904420FEF761
:1022B00066FC58E0AFF204221E212E20FEF7A9FC96
:1022C0008348006801F008FE04900C200123009070
:1022D0001E213620049AFEF752FCAFF238221E214E
:1022E0003E20FEF796FC7A48006801F0F5FD00906C
:1022F00001F02EFE019076480168019801F085FFFB
:102300007049029001F084FE039001F001FE0490F8
:102310000C20022300901E214420049AFEF72FFC7B
:102320006CA21E215420FEF774FC6948006801F07D
:10233000D3FD019001F00CFE0290654801680298FF
:1023400001F063FF5F49039001F062FE5E49049073
:1023500001F02AFE07D20C20012300221E2100904A
:102360004420FEF70CFC5DA228210020FEF751FC62
:10237000AFF2D02228212920FEF74BFC59A22821B8
:102380003F20FEF746FC58480068642190FBF1F0BE
:1023900004900C200223009028211C20049AFEF7B0
:1023A000EEFB51480068642190FBF1F201FB120042
:1023B00004900C200223009028213320049AFEF779
:1023C000DEFB49480068642190FBF1F201FB12003A
:1023D0000A2807DA0C2002230022282100902D2051
:1023E000FEF7CDFB41A232215020FEF712FC0C205B
:1023F000052300903E48322102685F20FEF7BFFBB4
:102400003CA232210020FEF704FC3C48006801F0A9
:102410007FFD04900C200423009032211E20049A9A
:10242000FEF7ADFBFEF7CBFA05B000BD10B50123FA
:10243000002211461C20FEF74DFC01231A46002104
:102440002A20FEF747FC0123022200213820FEF754
:1024500041FC0123032200214620FEF73BFC01231F
:10246000042200215420FEF735FC0123052200211F
:102470006220FEF72FFC0123062200217020FEF7C8
:1024800029FC0123072210210020FEF723FC012351
:10249000082210210E20FEF71DFC01230922102125
:1024A0001C20FEF717FC01230A2210212A20FEF728
:1024B00011FC01230B2210213820FEF70BFC012315
:1024C0000C221DE00000C842000020414400002012
:1024D000480000207261642F73000000564F4C3A90
:1024E000000000005600000010000020503A0000DC
:1024F000080000204144433A00000000140000207E
:1025000010214620FEF7E6FB01230D221021542066
:10251000FEF7E0FB01230E2210216220FEF7DAFB1A
:1025200001230F2210217020FEF7D4FB012310227B
:1025300020210020FEF7CEFB0123112220210E20B6
:10254000FEF7C8FB0123122220211C20FEF7C2FB4C
:102550000123132220212A20FEF7BCFB0123142291
:1025600020213820FEF7B6FB01231522202146202A
:10257000FEF7B0FB0123162220215420FEF7AAFB10
:102580000123172220216220FEF7A4FB0123182239
:1025900020217020FEF79EFB01231922302100200C
:1025A000FEF798FB01231A2230210E20FEF792FB42
:1025B00001231B2230211C20FEF78CFB01231C224F
:1025C00030212A20FEF786FB01231C2230212E20F9
:1025D000FEF780FB01231C2230213220FEF77AFB1C
:1025E000FEF7EDF910BD10B501230C2200210846BD
:1025F000FEF770FB01231D2200210E20FEF76AFB6F
:1026000001231E2200211C20FEF764FB01231F2250
:1026100000212A20FEF75EFB012320220021382022
:10262000FEF758FB0123212200214620FEF752FB32
:102630000123222200215420FEF74CFB01230B2210
:1026400000216220FEF746FB012323220021702097
:10265000FEF740FB0123242210210020FEF73AFB65
:102660000123252210210E20FEF734FB0123262210
:1026700010211C20FEF72EFB0123272210212A20E7
:10268000FEF728FB0123282210213820FEF722FB29
:102690000123292210214620FEF71CFB01232A22B8
:1026A00010215420FEF716FB01232B22102162205B
:1026B000FEF710FB01232C2210217020FEF70AFBED
:1026C00001232D2220210020FEF704FB01232E22CE
:1026D00020210E20FEF7FEFA0123132220211C20C8
:1026E000FEF7F8FA01232F2220212A20FEF7F2FA22
:1026F0000123302220213820FEF7ECFA0123312279
:1027000020214620FEF7E6FA012332222021542020
:10271000FEF7E0FA0123332220216220FEF7DAFAE5
:102720000123182220217020FEF7D4FA0123292248
:1027300030210020FEF7CEFA0123342230210E2072
:10274000FEF7C8FA0123352230211C20FEF7C2FA19
:102750000123182230212A20FEF7BCFA0123192276
:1027600030213820FEF7B6FA0123362230214620E8
:10277000FEF7B0FA0123372230215420FEF7AAFADF
:1027800001231C2230216220FEF7A4FA01231C221F
:1027900030216620FEF79EFA01231C2230216A2098
:1027A000FEF798FAFEF70BF910BD10B5012342228F
:1027B00000210846FEF78EFA0123432200210E2055
:1027C000FEF788FA0123442200211C20FEF782FA3A
:1027D0000123242200212A20FEF77CFA012325224E
:1027E00000213820FEF776FA0123452200214620F9
:1027F000FEF770FA0123022200215420FEF76AFA44
:102800000123032200216220FEF764FA012304223F
:1028100000217020FEF75EFA0123462210210020DD
:10282000FEF758FA0123472210210E20FEF752FA34
:102830000123482210211C20FEF74CFA01234922D3
:1028400010212A20FEF746FA01234A2210213820BF
:10285000FEF740FA01234B2210214620FEF73AFAF8
:1028600001234C2210215420FEF734FA01234D227B
:1028700010216220FEF72EFA01234E221021702033
:10288000FEF728FA01234F2220210020FEF722FA2A
:102890000123502220210E20FEF71CFA01230B22D7
:1028A00020211C20FEF716FA0123512220212A2084
:1028B000FEF710FA0123332220213820FEF70AFA0E
:1028C00001233C2220214620FEF704FA01233D2269
:1028D00020215420FEF7FEF90123522220216220FC
:1028E000FEF7F8F90123532220217020FEF7F2F9B8
:1028F0000123542230210020FEF7ECF90123552258
:1029000030210E20FEF7E6F901234D2230211C2054
:10291000FEF7E0F901234E2230212A20FEF7DAF9F2
:102920000123562230213820FEF7D4F90123572203
:1029300030214620FEF7CEF901234C2230215420CD
:10294000FEF7C8F90123582230216220FEF7C2F9B0
:102950000123592230217020FEF7BCF9FEF72FF831
:1029600010BD10B50123232200210846FEF7B2F95D
:1029700001235A2200210E20FEF7ACF90123242264
:1029800000211C20FEF7A6F90123252200212A2080
:10299000FEF7A0F90123262200213820FEF79AF93C
:1029A0000123272200214620FEF794F90123282243
:1029B00000215420FEF78EF90123292200216220F4
:1029C000FEF788F901235B2200217020FEF782F9CF
:1029D00001235C2210210020FEF77CF901235D22F7
:1029E00010210920FEF776F901235E221021122022
:1029F000FEF770F901234C2210211B20FEF76AF923
:102A000001235F2210212920FEF764F901233922D6
:102A100010213720FEF75EF90123602210214520A6
:102A2000FEF758F90123612210214E20FEF752F9DA
:102A30000123602210215720FEF74CF90123612267
:102A400010216020FEF746F901236322102169203E
:102A5000FEF740F90123602220210020FEF73AF919
:102A60000123612220210920FEF734F9012362228B
:102A700020211220FEF72EF90123612220211B20A4
:102A8000FEF728F90123642220212420FEF722F9F1
:102A90000123572220213220FEF71CF901230B22AB
:102AA00020214020FEF716F90123512220214E203B
:102AB000FEF710F90123332220215C20FEF70AF9EA
:102AC00001234F2220216A20FEF704F90123652209
:102AD00030210020FEF7FEF80123492230210E208C
:102AE000FEF7F8F801234A2230211C20FEF7F2F805
:102AF00001234B2230212A20FEF7ECF801234C223F
:102B000030213820FEF7E6F801234D2230214620FF
:102B1000FEF7E0F801234E2230215420FEF7DAF8C8
:102B20000123132230216220FEF7D4F801233C2236
:102B300030217020FEF7CEF8FDF741FF10BD38B50B
:102B400001233D2200210846FEF7C4F8012331226B
:102B500000210E20FEF7BEF80123662200211C2072
:102B6000FEF7B8F80123332200212A20FEF7B2F83D
:102B70000123142200213820FEF7ACF8012315228E
:102B800000214620FEF7A6F801231622002154203A
:102B9000FEF7A0F80123172200216220FEF79AF821
:102BA0000123182200217020FEF794F80123192236
:102BB00010210020FEF78EF80123672210210E203D
:102BC000FEF788F80123682210211C20FEF782F806
:102BD0000123072210212A20FEF77CF80123082276
:102BE00010213820FEF776F801231C221021462000
:102BF000FEF770F801231C2210214A20FEF76AF824
:102C000001231C2210214E20FEF764F8012010231E
:102C10004122282100901820FDF757FF01201023A2
:102C20004422282100902020FDF74FFF012010238F
:102C30004322282100900846FDF747FFAD48006871
:102C400001F066F904461020042322462821009052
:102C50004E20FDF794FFFDF7B2FE38BD38B50123D5
:102C6000382200211520FEF735F8012339220021F2
:102C70002320FEF72FF801233A2200213120FEF70E
:102C800029F801233B2200213F20FEF723F80123EE
:102C90003C2200214D20FEF71DF801233D2200219A
:102CA0005B20FEF717F801233E2200216920FEF782
:102CB00011F801233F2210210020FEF70BF8012319
:102CC000402210210E20FEF705F801234122102199
:102CD0001C20FDF7FFFF01231C2210212E20FDF7F1
:102CE000F9FF01231C2210213520FDF7F3FF0123FA
:102CF0001C2210213C20FDF7EDFF01231C22102196
:102D00004320FDF7E7FF01231C2210214A20FDF795
:102D1000E1FF01231C2210215120FDF7DBFF0123DD
:102D20000C2220210E20FDF7D5FF01232B2220218C
:102D30001C20FDF7CFFF01232C2220212A20FDF7A4
:102D4000C9FF0123242220213820FDF7C3FF0123DE
:102D5000252220214620FDF7BDFF01232D22202121
:102D60005420FDF7B7FF01232E2220216220FDF71A
:102D7000B1FF012010234122302100901820FDF7DF
:102D8000A4FE012010234422302100902020FDF7D2
:102D90009CFE012010234322302100902820FDF7C3
:102DA00094FE5448006801F0B3F804461020042350
:102DB0002246302100904E20FDF7E1FEFDF7FFFD99
:102DC00038BD10B50123002204212020FDF743FF68
:102DD00001231A4604213020FDF73DFF0123022282
:102DE00004214020FDF737FF012303220421502056
:102DF000FDF731FF0123042218210846FDF72BFFC0
:102E00000123052218212820FDF725FF0123062292
:102E100018213820FDF71FFF012307221821482021
:102E2000FDF719FF0123082218215820FDF713FF91
:102E30000123092218216820FDF70DFF01230A2232
:102E40002C210020FDF707FF01230B222C2110204D
:102E5000FDF701FF01230C222C212020FDF7FBFEB2
:102E600001230D222C213020FDF7F5FEFDF7A7FDF3
:102E700010BD10B501230E2210211820FDF7EBFE26
:102E800001230F2210212820FDF7E5FE0123102247
:102E900011463820FDF7DFFE0123112210214820C2
:102EA000FDF7D9FE0123122210215820FDF7D3FE91
:102EB0000123132220211820FDF7CDFE0123142227
:102EC00020212820FDF7C7FE0123152220213820CC
:102ED000FDF7C1FE0123002220214820FDF7BBFEA3
:102EE00001231A4620215820FDF7B5FEFDF767FDA6
:102EF00010BD00001400002038B500BF97480078CE
:102F0000012820D10020954908709548006840F0BC
:102F10002000934908600846006840F0800008607F
:102F20000846006840F4006008600846006840F405
:102F3000805008608B48008840F001008949088073
:102F4000FDF77CFD01E0FEF7A5FEFDF7A9FC0446B8
:102F5000012C01D18449087083480078012875D17B
:102F6000002081490870FDF769FD01207B49087048
:102F700000207E4908807A48006820F020007849C7
:102F800008600846006820F0800008600846006875
:102F900020F4006008600846006820F48050086053
:102FA0007048008800F0FE006E490880D4E000BF41
:102FB000FDF749FC0446FFF739FA1E20FDF77AF9C0
:102FC000052C7DD1FDF73AFDC2E000BF1E20FDF7C4
:102FD00071F9FDF738FC0446FFF705FB0B2C70D1A7
:102FE000FDF72CFDAEE000BFFFF7DFFB1E20FDF775
:102FF00061F9FDF728FC04460B2C75D1FDF71EFD89
:103000009AE000BFFFF7ADFC1E20FDF753F9FDF776
:103010001AFC04460B2C68D1FDF710FD86E000BFBA
:103020000F210320FEF7DFF8054600F0A9FF504905
:103030000860FFF784FD3220FDF73CF9FDF703FC43
:1030400004460C2C03D1FDF7F9FCDBE785E0052CE9
:103050006CD1FDF7F3FC0020464908700A2464E0B7
:103060000F210320FEF7BFF8054600F089FF404915
:103070000860102002232246014600905820FDF7E8
:103080007EFDFFF7EBFD3C480078401C3A49087094
:103090001E20FDF70FF938480078C82833DC37497F
:1030A0003348006801F080F821D83549304800687D
:1030B00000F07AFF1BD82F480078401C2D4901E012
:1030C00047E040E008700846007896280FDDFDF7DD
:1030D000B5FC0BE0002028490870FFF772FEFDF7F1
:1030E000B2FB052802D109E727E020E0F2E72248F9
:1030F0000078142190FBF1F201FB1200012814D199
:10310000601EC4B211E000201B490870FDF796FC58
:10311000FFF7AFFE40F6B830FDF7CCF84FF4FA6099
:10312000FDF7C8F8FDF78AFC7AE799E777E70C2CFA
:1031300002D1FDF783FC57E763E70C2C02D1FDF7C2
:103140007DFC43E74FE70C2C02D1FDF777FC2FE71E
:103150003BE70C2C00D1D1E629E738BD0400002064
:10316000000401400C2C01400300002040040040FA
:1031700014000020850000208600002000807C4490
:1031800000C080447047704770477047704775466D
:1031900000F02CF8AE4605006946534620F00700C3
:1031A000854618B020B5FDF701F8BDE820404FF086
:1031B00000064FF000074FF000084FF0000B21F021
:1031C0000701AC46ACE8C009ACE8C009ACE8C009EE
:1031D000ACE8C0098D46704710B50446AFF30080D7
:1031E0002046BDE81040FCF7C8BF0000004870470B
:1031F0008804002021F00042A2F16052B2F5801F45
:1032000001F0004328BFD2F17F6C0BD95FEA001CAC
:1032100043EAC20242EB507018BF704728BF20F04B
:1032200001007047B2F5801FBCBF184670474FEAD7
:10323000410C1CF5001F02D2084600F0B0BF70B56B
:1032400000F07AFB00000089FFF7F6BF4FF0004066
:10325000A0F580007047000010B591EA030F48BF49
:1032600083F0004300F1FA83841A71EB030C05D25A
:10327000121943EB0C03001B61EB0C01DFF824E196
:103280004FEA1154A4EB135C1EEA430F18BF9EEAE9
:10329000445F73D023EA0E03DCF1200E21EA0451CF
:1032A00043F4801332D322FA0CFE10EB0E0023FA03
:1032B0000CFE41EB0E01CCF1200E03FA0EFE10EBDA
:1032C0000E0051F10001B1F5801FCCF1200E32D279
:1032D00001EB045112FA0EF2BDE8104058BF7047DE
:1032E000401C38BF5FEA420218BF7047002814BF75
:1032F00020F0010041F100014FEA410313F5001FE6
:1033000038BF7047A1F1C04100F064BB012A43EB14
:103310000302ACF1200CDCF11F0E32BF4FF0000EA7
:1033200023FA0CF310EB030041EB0451B4EB115FF3
:10333000D0D0A1EB045101F5801149085FEA3000BB
:1033400001EB04510ED350F1000038BF12FA0EFE0B
:1033500008D1BDE81040C9E7401C38BF5FEA42020F
:10336000CAD1C3E7BDE810404FEA410313F5001F7F
:1033700038BF7047A1F1C04100F02CBB9EEA445F0A
:1033800008D011EA5E0FBDE8104004BF01F0004113
:1033900000207047BDE8104070B500F0CDFA00BFC6
:1033A00064FBBE3E0000E0FF491058BFC1F1404140
:1033B0005B1058BFC3F140438B42EFF3008070476E
:1033C0002DE9C04130B4DFF8A0C23CEA111418BFA7
:1033D0003CEA131400F0EC8081EA03051CEA1114A6
:1033E00044EAD57418BF1CEA131500F0C780A4EB9B
:1033F00005044FF0004545EAC12145EAC32341EAEF
:10340000505143EA525304F17F74994204F5003459
:103410004FEAC0204FEAC22208BF904200F09C80D1
:103420004FEA13650FF24016765D4FEA134506FB2F
:1034300005F7C7F1807706FB07F74FEAD737A7FBF9
:1034400003687642C8F58038A7FB06CE38BFA8F1DE
:10345000010807FB08E64FF0000EA6FB028CE6FB16
:1034600003CEDCF1000CCEF1004E38BFAEF1010E00
:10347000A6FB0C584FF000074FF00005E6FB0E8747
:10348000A1FB08C6A0FB07CE16EB0E0645F1000512
:10349000E1FB076515F1E04E7EBFA4F580345FEADD
:1034A00046066D4116F1800745F100054FEA1727E2
:1034B0004FEA066647EA0567A6F1DE46B6F1805F89
:1034C0004FEA15251FD9384624F0010C05EBC471CD
:1034D000BCF1FE6F01EB0C1102D8F0BCBDE800811D
:1034E00024425CBF01F5801E9EEAC47F02D4F0BC7A
:1034F000BDE80081244238D4F0BCA1F1C041BDE850
:10350000004100F067BA4FEAD22242EA43524FEA42
:10351000D323A7FB02864FEAD02040EA415007FBA5
:1035200003661EEA0E0F4FEAD12105FB026658BF63
:10353000A6EB0056B6EB00564FEA520E4EEAC37E9B
:1035400018EB0E0E56EB530EBDD518EB02085E417C
:103550007F1C55F10005B6E74FF480154FF00007CA
:103560004FF000064FF00008ADE7F0BC4FF0000050
:1035700001F1C04101F00041BDE8008111EA0C1FDA
:103580000CEA131500D00CE013EA0C1F00F02580A4
:103590004FF00000F0BC81EA030101F00041BDE8FA
:1035A0000081F0BCBDE8004181EA030100F012BADD
:1035B000F0BCBDE8004170B500F0BEF9097EFC3EEC
:1035C00000F007B881EA03014FF0000001F000416C
:1035D000704781EA030100F0FDB9F0BCBDE800418D
:1035E0004FF0000021497047FFFDFBF9F7F5F4F2B9
:1035F000F0EEEDEBE9E8E6E4E3E1E0DEDDDBDAD88E
:10360000D7D5D4D3D1D0CFCDCCCBCAC8C7C6C5C4EB
:10361000C2C1C0BFBEBDBCBBBAB9B8B7B6B5B4B302
:10362000B2B1B0AFAEADACABAAA9A8A8A7A6A5A4ED
:10363000A3A3A2A1A09F9F9E9D9C9C9B9A999998B1
:103640009797969595949393929191908F8F8E8E54
:103650008D8C8C8B8B8A89898888878786858584E1
:1036600084838382828181800000FF070000F87FCD
:1036700051EA030C17D41CF5801F58BFBCF5801FFE
:1036800000F10680994218BF704708BF904270470A
:1036900007D711F5801F58BF13F5801F19D4994221
:1036A0007047894270471CF5801F08D5BCF5801F04
:1036B000F7D58B4218BF704708BF824270474FF45E
:1036C000001C1CEB410F38BF1CEB430F01D28B4297
:1036D000704770B500F030F9922449004FF0005166
:1036E0004FF08053FFF760BE4FEA41034FEA535358
:1036F000A3F58063D3F11E03C8BFD3F1210C0CDD09
:103700004FF0004242EAC12242EA505232FA03FC30
:103710008CEAE17CACEBE1707047102BC4BF002059
:10372000704703F5787CBCF1FF3F04D06FF0004296
:1037300082EA2100704770B500F0FEF849922480BB
:1037400000207047F2E7B0FA80F310FA03F10AD0D4
:10375000C3F11D0303F580634FEA41504FEA035262
:1037600002EBD12170474FF00000704751EA030C83
:1037700017D41CF5801F58BFBCF5801F00F10680D0
:10378000994218BF704708BF9042704707D711F59C
:10379000801F58BF13F5801F19D499427047894282
:1037A00070471CF5801F08D5BCF5801FF7D58B42EC
:1037B00018BF704708BF824270474FF4001C1CEBD3
:1037C000410F38BF1CEB430F01D28B42704770B5DD
:1037D00000F0B2F8922449004FF000514FF08053AE
:1037E000FFF7E2BDDFF848C170B51CEA111E1EBF2D
:1037F0001CEA13159EEA0C0F95EA0C0F00F06F807F
:1038000081EA030423EA4C134EEAD47E21EA4C11E8
:1038100041F4801143F48013AE44A1FB024CA0FBA1
:103820000365AEF17F7E361955EB0C05A1FB034C09
:103830004CF10003A0FB021C16EB0C06654153F192
:103840000003094218BF46F0010613F4007F0BD1B4
:103850004FEA03314FEA0530340341EA155140EA9B
:1038600016506FF003020AE04FEAC3214FEAC52069
:10387000F40241EA555140EA56506FF0020202EB61
:103880002E4201EB025585EACE710AD05FEA440C64
:1038900018BF24F0004450F1000041F1000120EA7B
:1038A000D47040F2FE7C624500D270BDA84214BFC5
:1038B0004FF080444FF04044002E08BF0024BEF17A
:1038C000806FA8BFA1F1C041BDE8704080F2828046
:1038D0004FF0000001F1C04101F0004170479EEA45
:1038E0000C0F0CEA131518BF95EA0C0F06D04FF019
:1038F000000081EA030E0EF0004170BD00F01CF8DC
:103900008900013E00F007B800F009B84FEA430C07
:103910005FEA5C5C08D081EA030100F05BB84FEA23
:10392000410C5FEA5C5CF6D14FF000000149704742
:103930000000FF070000F87F0EF1020E2EF0030ECC
:103940005EF8046B364205D4012A43EB030515F5F6
:10395000001F12D8012841EB010C1CF5001F0CD8E8
:103960000ED14FEAD17C15F5001F0CEB4C0C0CF17D
:10397000020C08BF4CEBD37C04E04FF0080C01E0D4
:103980004FEAD37C0CEB4C0526FA05F606F0070649
:10399000B6F1040C06D20EEB860CBDE870404CF07C
:1039A000010C6047DFE80CF0090B02024FF0004108
:1039B0004FF00000A1F5002170BD19461046012806
:1039C00051EB010418BFD4F5001484BF002001F0AE
:1039D000004170BD0808A0F500114FEA31017047A1
:1039E00053EA010C17D41CF5801F58BFBCF5801F8B
:1039F00000F106808B4218BF704708BF82427047B3
:103A000007D713F5801F58BF11F5801F19D48B42BB
:103A100070479B4270471CF5801F08D5BCF5801F7E
:103A2000F7D5994218BF704708BF904270474FF4CE
:103A3000001C1CEB430F38BF1CEB410F01D2994215
:103A400070470FB40CBC03BCFFF7C1BE10B591EAC0
:103A5000030F48BF83F000433FF506AC841A71EBB7
:103A6000030C07D212198CF0004C43EB0C03001B23
:103A700061EB0C01DFF8A4E14FEA1154A4EB135CF5
:103A80001EEA430F18BF9EEA445F00F0B08023EAAD
:103A90006E03524221EA0451C3EB6E0338BF5B1E32
:103AA000DCF1200E25D322FA0CFE10EB0E0043FAB7
:103AB0000CFE41EB0E01CCF1200E03FA0EFE10EBD2
:103AC0000E0051F10001CCF1200E29D412FA0EF2B1
:103AD00001EB0451BDE8104058BF7047401C1CBFAB
:103AE000B2F1004F704700280CBF491C20F00100C4
:103AF000704712EB020E43EB030218BF4FF0010EAA
:103B00004EEA4202ACF1200CDCF11E0E54D943FA0D
:103B10000CFE10EB0E0051F1FF31CCF11E0ED5D58D
:103B20000EF1010E12FA0EFE404141EB010101EBD4
:103B3000445C5FEA5C5C10D910EBDE7001EB045171
:103B400038BFBEF1004FBDE8104018BF70470028D5
:103B50000CBF491C20F00100704730D24FEAD42C32
:103B600011F5001124F400641BD0B1FA81F20B3A74
:103B7000A41AA41ED2F12003914030FA03F3194392
:103B8000904001EBCC71002C01EB0451BDE81040DA
:103B9000A8BF704701F1C0414FF0000001F00041A3
:103BA0007047B0FA80F310FA03F100D110BDE41AA7
:103BB000173C4805C90AE4E701EB045110BD491060
:103BC00001EB0451BDE810404FEA300002E04FF035
:103BD000000170474A0008BF0042F8D0B2F5001F4C
:103BE00028BF704701F000414FF0000070479EEA87
:103BF000445F07D011EA5E0FBDE8104004BF00210A
:103C000000207047BDE8104070B5FFF795FE00BF7B
:103C100040DFF63E83F00041104670470000E0FFB1
:103C200043004FEAD30C4FEA3C0C43401FBF400710
:103C30000CF1605113F0FE4F70471CF0006F03D180
:103C400000200CF0004170470CF0004343EA507034
:103C500010B540EACC0000F05CFA00BF0000009212
:103C60004FEA0001FFF7B6BE4FF000414FF00000F1
:103C7000A1F500217047000090EA010F48BF81F0D4
:103C8000004100F1D482421A3CBF801A89184FEAE1
:103C9000D0524FF07F4C1CEA410FA2EBD15318BF1A
:103CA0009CEA026F00F03B804FF0004C4CEA002091
:103CB0004CEA012121FA03FC10EB0C0C1ED202F19C
:103CC000FF325FEA1C2040EBC25038BF70471CF047
:103CD0007F0F4FEA400C18BFBCF17F4F38BF7047D1
:103CE000C3F12003994008BF20F00100BCF17F4FD1
:103CF00038BF7047A0F1C04000F051BA4FEA3C0015
:103D0000000A40EBC25028BF1CF0FF0F4FEA400CE6
:103D1000E6D018BFBCF17F4F38BF7047EAE79CEA96
:103D2000026F05D010EA5C0F08BF00F0004070473A
:103D300010B500F0EEF900BF64FBBE3E401058BF66
:103D4000C0F14040491058BFC1F140418142EFF3FA
:103D5000008070474FF47F0C1CEAD0121EBF1CEA93
:103D6000D11392EA0C0F93EA0C0F00F0858090EAD1
:103D7000010F48BF42F4807240F4000C41F400008F
:103D80002CF07F4120F07F4000B58142A2EB03027E
:103D90000FF2081CACEB504EC0F100009EF800E0A2
:103DA0004FEA4E0E00FB0EFC38BF49004FEA2C1CB8
:103DB00002F5FA020CFB0EF34FEACE1E4FEA112C6D
:103DC0004FEAC1210EEB635E42EB22420EFB0CFC7C
:103DD0004FEA1C5300FB03114FEA112C4FEA01314B
:103DE0000EFB0CFC4FEADC4C00FB0C11C14228BF5F
:103DF00009184CEB03335DF804EB10EB410143EB86
:103E0000C250B2F57C0F38BF704729D512F0F00FC1
:103E10001CBF00F1C04000F0004070470081828369
:103E20008485868788898B8C8D8E8F9192939596C9
:103E300097999A9C9D9FA0A2A3A5A7A8AAACAEB053
:103E4000B2B3B5B7B9BCBEC0C2C5C7C9CCCED1D458
:103E5000D7D9DCDFE2E6E9ECF0F3F7FAFE00000088
:103E60004FEA400C0CF1807CBCF17E4F28BF7047BC
:103E7000B0F1C04000F093B990EA010F0CEAD11301
:103E800048BF42F48072624538BF634507D213F4DD
:103E90007F0F16D080EA010000F00040704710B597
:103EA00000F037F9097EFC3E00F005B880EA010019
:103EB00000F00040704780EA010000F0004000F090
:103EC0006EB912F47F0F04BF0248704780EA010008
:103ED00000F065B90000C07F41000B0ED3F19E02D7
:103EE00008D950F400034FEA032323FA02F048BF35
:103EF0004042704710B500F00CF900BF4992248091
:103F0000002070476FF0004282EA200070470000F6
:103F1000C10DD1F19E0206DB4FEA002343F00043BE
:103F200023FA02F07047004207D54FEA4001B1F191
:103F3000FE4F02D24FF00000704710B500F0E9F8D4
:103F400049922480002070476FEA200070470000EB
:103F500010F0004148BF4042B0FA80F310FA03F27B
:103F6000C3F19D030BD051EAC35101EB122053065C
:103F700038BF704700F1010008BF20F00100704712
:103F8000B0FA80F310FA03F2C3F19D030AD0D90509
:103F900001EB1220530638BF704700F1010008BF43
:103FA00020F001007047000050EA010C00F113807E
:103FB0001CF5000F58BFBCF5000F01D488427047B4
:103FC00007D710F5000F58BF11F5000F15D4884220
:103FD0007047894270471CF5000F04D5BCF5000FEF
:103FE000F7D5814270474FF0807C1CEB400F38BF03
:103FF0001CEB410F01D28142704710B500F089F8E7
:10400000922449004FF000504FF08051FFF796BEC8
:104010004FF47F0C1CEAD0121EBF1CEAD11392EAA7
:104020000C0F93EA0C0F00F0478090EA010F48BF95
:1040300042F480724FF0004C4CEA00204CEA01211F
:1040400002EB0302A0FB0113A2F50002002918BF36
:1040500043F001035B0028BF4FEA330342EB2242E7
:104060005FEA132C4CEBC2502EBFBCEB436FB2F592
:104070007C0F70474FEA036CBCF1004F08BF20F083
:104080000100B2F57C0F38BF70470BD582F0FF02FC
:1040900012F5803FC8BF704700F1C040D8BF00F0A4
:1040A0000040704700F5000C5FEA4C0C48BF7047B9
:1040B000B0F1C04000F073B890EA010F0CEAD113E0
:1040C00048BF42F48072624538BF634504D280EA3B
:1040D000010000F00040704710B500F01AF800BF72
:1040E0008900013E00F007B800F009B85FEA410C12
:1040F0005FEA1C6C08D080EA010000F050B85FEA6B
:10410000400C5FEA1C6CF6D14FF00040A0F5800037
:1041100070470EF1020E2EF0030E5EF8044B24429F
:1041200004D44FEA4102B2F17F4F11D84FEA400365
:10413000B3F17F4F0CD80ED14FEAD07CB2F17F4F54
:104140000CEB4C0C0CF1020C08BF4CEBD17C04E0E6
:104150004FF0080C01E04FEAD17C0CEB4C0324FA41
:1041600003F404F00704B4F1040C06D20EEB840C43
:10417000BDE810404CF0010C6047DFE80CF0070888
:1041800002024FF00040A0F5800010BD084642003A
:1041900018BFD2F1807288BF00F0004010BDFF212F
:1041A00041EAD050C005704751EA000C00F113807D
:1041B0001CF5000F58BFBCF5000F01D481427047B9
:1041C00007D711F5000F58BF10F5000F15D4814225
:1041D0007047894270471CF5000F04D5BCF5000FED
:1041E000F7D5884270474FF0807C1CEB410F38BFF9
:1041F0001CEB400F01D28842704780EA010081EA3F
:10420000000180EA0100FFF7F8BE80F0004090EA6C
:10421000010F7FF538AD81F0004100F008B80000D3
:1042200090EA010F48BF81F000413FF52CAD421AE2
:1042300004D882F00042A0EB020011444FEAD052B1
:104240004FF07F4C1CEA410FA2EBD15318BF9CEA00
:10425000026F4AD04FF0004C4CEA00204CEA01219A
:1042600021FA03FCB0EB0C0C0FD412F0FE0F36D089
:104270005FEA4C001DD5001240EBC25038BF7047BA
:104280001CF03F0F18BF70470BE0A2F101025FEA7C
:104290001C2040EBC25038BF70471CF07F0F18BF86
:1042A0007047C3F12003994014BF401E20F0010065
:1042B000704780084FEA122308BF7047B0FA80FCAD
:1042C000A2EB0C02CCF1280C60FA0CF093EA122F4E
:1042D00004BF00EBC25070474FEAC3707047130A27
:1042E0005FEADC1008BF7047F6E79CEA026F04D073
:1042F00010EA5C0F08BF0020704710B5FFF709FFF8
:1043000040DFF63E81F000407047000000000000F2
:104310000000000000000000000000003F4000001E
:1043200000000000000030004000300040000000AD
:1043300009000BC03D000BC03D00090018C024401F
:104340007FE0224031800000180024C01B000D8057
:104350003240018003801C4027401C800740004001
:1043600010006000000000000000000000000000DD
:1043700000001F80204040200000402020401F807F
:1043800000000000090006001F8006000900000070
:10439000040004003F8004000400000000100060DE
:1043A00000000000000000000400040004000400FD
:1043B00004000000000000400000000000000000B9
:1043C000002001C006003800400000001F8020408F
:1043D000204020401F800000000010403FC00040EF
:1043E0000000000018C02140224024401840000076
:1043F00010802040244024401B80000002000D005B
:1044000011003FC0014000003C8024402440244073
:10441000238000001F80244024403440038000009B
:104420003000200027C03800200000001B802440FE
:10443000244024401B8000001C0022C02240224057
:104440001F80000000000000084000000000000085
:1044500000000000046000000000000000000400F4
:104460000A001100208040400900090009000900ED
:104470000900000000004040208011000A000400F4
:104480001800200023402400180000001F80204056
:10449000274029401F400000004007C039000F009E
:1044A00001C0004020403FC0244024401B80000049
:1044B0001F802040204020403080000020403FC02E
:1044C000204020401F80000020403FC024402E405C
:1044D00030C0000020403FC024402E0030000000CB
:1044E0000F001080204022403380020020403FC057
:1044F000040004003FC02040204020403FC0204036
:10450000204000000060202020203FC0200020002C
:1045100020403FC024400B0030C0204020403FC01E
:1045200020400040004000C03FC03C0003C03C00B1
:104530003FC0000020403FC00C4023003FC020008F
:104540001F802040204020401F80000020403FC0AE
:1045500024402400180000001F802140214020E05A
:104560001FA0000020403FC02440260019C000408A
:1045700018C02440244022403180000030002040F8
:104580003FC020403000000020003F80004000403D
:104590003F80200020003E0001C0070038002000BE
:1045A000380007C03C0007C038000000204039C078
:1045B000060039C0204000002000384007C03840C5
:1045C00020000000304021C02640384020C00000BC
:1045D000000000007FE0402040200000000070004C
:1045E0000C000380004000000000402040207FE0DD
:1045F000000000000000200040002000000000003B
:10460000001000100010001000100010000000004A
:10461000400000000000000000000280054005404E
:1046200003C0004020003FC004400440038000005D
:1046300000000380044004400640000000000380A6
:10464000044024403FC00040000003800540054076
:1046500003400000000004401FC02440244020000C
:10466000000002E0055005500650042020403FC0E5
:104670000440040003C000400000044027C0004084
:104680000000000000100010041027E000000000EF
:1046900020403FC00140070004C0044020402040AB
:1046A0003FC000400040000007C0040007C00400F5
:1046B00003C00000044007C00440040003C00040E1
:1046C000000003800440044003800000041007F051
:1046D00004500440038000000000038004400450A4
:1046E00007F00010044007C002400400040000006E
:1046F000000006400540054004C000000000040022
:104700001F80044000400000040007800040044077
:1047100007C000400400070004C001800600040038
:10472000060001C0070001C006000000044006C0EA
:10473000010006C0044000000410071004E00180DE
:10474000060004000000044005C0064004400000CC
:104750000000000004007BE040200000000000009A
:104760000000FFF000000000000040207BE004009B
:1047700000000000400080004000200020004000B9
:104780000000000000000000000000000000000029
:104790000000000000001FCC000C00000000000022
:1047A00000000800300060000800300060000000D9
:1047B000022003FC1E20022003FC1E200220000019
:1047C00000000E1811043FFF10840C780000000058
:1047D0000F0010840F3800C007781884007800009C
:1047E00000780F8410C411240E9800E4008400089F
:1047F00008006800700000000000000000000000D9
:1048000000000000000007E018182004400200002B
:10481000000040022004181807E00000000000001B
:104820000240024001800FF001800240024000007F
:104830000080008000800FF8008000800080000071
:104840000001000D000E000000000000000000004C
:1048500000000080008000800080008000800080D8
:104860000000000C000C0000000000000000000030
:1048700000000006001800600180060018002000FB
:10488000000007F0080810041004080807F00000F2
:104890000000080408041FFC0004000400000000DD
:1048A00000000E0C10141024104411840E0C000093
:1048B00000000C1810041104110412880C70000080
:1048C000000000E00320042408241FFC0024000052
:1048D00000001F981084110411041088107000004B
:1048E000000007F008881104110418880070000007
:1048F00000001C00100010FC13001C001000000041
:1049000000000E3811441084108411440E38000049
:1049100000000700088C10441044088807F00000CD
:10492000000000000000030C030C00000000000069
:10493000000000000001010600000000000000006F
:10494000000000800140022004100808100400004C
:104950000220022002200220022002200220000069
:10496000000010040808041002200140008000002C
:1049700000000E001200100C106C10800F000000E0
:1049800003E00C1813E4142417C4082807D000000F
:104990000004003C03C41C40074000E4001C000469
:1049A00010041FFC1104110411040E880070000093
:1049B00003E00C1810041004100410081C10000070
:1049C00010041FFC100410041004080807F0000075
:1049D00010041FFC1104110417C41004081800006F
:1049E00010041FFC1104110017C010000800000083
:1049F00003E00C181004100410441C780040000060
:104A000010041FFC10840080008010841FFC100420
:104A10000000100410041FFC10041004000000002B
:104A200000030001100110011FFE10001000000023
:104A300010041FFC110403801464181C10040000EF
:104A400010041FFC1004000400040004000C00000B
:104A500010041FFC1F0000FC1F001FFC10040000BE
:104A600010041FFC0C04030000E010181FFC1000D1
:104A700007F00808100410041004080807F00000EC
:104A800010041FFC10841080108010800F000000A4
:104A900007F0081810241024101C080A07F2000060
:104AA00010041FFC1104110011C011300E0C000481
:104AB00000000E1C11041084108410441C380000E7
:104AC0001800100010041FFC100410001800000053
:104AD00010001FF810040004000410041FF8100058
:104AE00010001E0011E0001C007013801C0010005C
:104AF0001FC0103C00E01F0000E0103C1FC0000081
:104B00001004180C163401C001C01634180C10041F
:104B100010001C00130400FC13041C001000000013
:104B20000804101C1064108413041C0410180000E6
:104B30000000000000007FFE400240024002000032
:104B4000000030000C0003800060001C0003000027
:104B500000004002400240027FFE00000000000012
:104B60000000000020004000400040002000000045
:104B7000000100010001000100010001000100012D
:104B80000000400040002000000000000000000085
:104B900000000098012401440144014400FC000489
:104BA00010001FFC00880104010400880070000050
:104BB0000000007000880104010401040088000066
:104BC0000000007000880104010411081FFC0004AB
:104BD000000000F8014401440144014400C8000001
:104BE0000000010401040FFC11041104110018005D
:104BF000000000D601290129012901C90106000090
:104C000010041FFC008401000100010400FC0004EA
:104C100000000104190419FC000400040000000055
:104C20000000000300010101190119FE000000004D
:104C300010041FFC0024004001B4010C010400001A
:104C40000000100410041FFC000400040000000019
:104C5000010401FC0104010001FC0104010000FC4D
:104C6000010401FC008401000100010400FC0004B7
:104C7000000000F8010401040104010400F8000030
:104C8000010101FF0085010401040088007000009B
:104C900000000070008801040104010501FF00010B
:104CA0000104010401FC00840104010001800000F2
:104CB000000000CC012401240124012401980000FB
:104CC00000000100010007F80104010400000000D9
:104CD000010001F8000400040004010801FC0004C4
:104CE000010001800170000C0010016001800100D2
:104CF00001F0010C003001C00030010C01F0010096
:104D000000000104018C00740170018C010400009A
:104D1000010101810171000E001801600180010094
:104D200000000184010C013401440184010C0000E5
:104D3000000000000000000001003EFC40024002B4
:104D40000000000000000000FFFF00000000000065
:104D50000000400240023EFC010000000000000094
:104D60000000600080008000400040002000200023
:104D700002000000000000004200000000000000EF
:104D800033000000FC0000000000000008000000EC
:104D900000000000110000007F000000FE00000085
:104DA0004100000000000000490000007800000001
:104DB00049000000480000007F000000480000009B
:104DC0004900000048000000490000007A0000008F
:104DD00041000000010000007F000000FE00000014
:104DE00000000000000000000000000000000000C3
:104DF0002000000000000000220000000000000071
:104E0000220000000000000022000000000000005E
:104E1000FA00000000000000220000000000000076
:104E200023000000FF00000022000000000000003E
:104E3000220000000000000022000000100000001E
:104E4000FA0000000800000022000000100000002E
:104E500023000000E000000020000000000000002F
:104E60002000000000000000000000000000000022
:104E7000000000000100000000000000060000002B
:104E80001F000000F80000001100000000000000FA
:104E900011000000080000001100000004000000E4
:104EA00011000000F80000001000000001000000E8
:104EB0001000000002000000FF000000840000005D
:104EC00010000000680000009000000018000000C2
:104ED0005000000064000000130000008200000089
:104EE000100000001F000000000000000000000093
:104EF0001000000008000000100000000C0000007E
:104F000010000000080000001F000000F800000072
:104F10001000000010000000100000001100000050
:104F20001000000012000000080000000C0000004B
:104F30000800000070000000FF000000800000007A
:104F4000080000000200000008000000010000004E
:104F500008000000020000000F000000FC0000003C
:104F60000000000000000000000000000000000041
:104F7000080000004000000008000000420000009F
:104F80000800000081000000FF000000FE0000009B
:104F90000900000000000000040000000000000004
:104FA00019000000010000001100000021000000B5
:104FB00011000000D2000000970000001400000063
:104FC0007100000008000000110000001400000043
:104FD00011000000E20000001500000001000000C8
:104FE00019000000000000000000000000000000A8
:104FF0004000000000000000400000000000000031
:105000004000000000000000400000000000000020
:105010004000000000000000400000000000000010
:105020007F000000FF0000004000000000000000C2
:1050300040000000000000004200000000000000EE
:10504000410000000000000040000000800000005F
:105050004000000060000000400000000000000070
:105060004000000000000000000000000000000000
:105070000000000001000000000000000600000029
:105080007F000000F8000000440000004000000025
:105090004400000040000000440000004000000008
:1050A00044000000400000007F000000FE000000FF
:1050B00044000000400000004400000040000000E8
:1050C00044000000420000004400000041000000D5
:1050D0007F000000FE000000000000000000000053
:1050E00000000000000000000000000000000000C0
:1050F00000000000000000000000000001000000AF
:1051000000000000060000001F000000F800000082
:10511000100000008000000010000000800000006F
:10512000900000008000000070000000800000007F
:10513000100000008000000010000000800000004F
:10514000100000008000000010000000800000003F
:105150001F000000C0000000000000000000000070
:10516000000000000000000000000000000000003F
:10517000080000004000000008000000420000009D
:105180000800000081000000FF000000FE00000099
:105190000900000000000000040000000000000002
:1051A00019000000010000001100000021000000B3
:1051B00011000000D2000000970000001400000061
:1051C0007100000008000000110000001400000041
:1051D00011000000E20000001500000001000000C6
:1051E00019000000000000000000000000000000A6
:1051F00002000000800000000C00000080000000A1
:10520000F7000000FE000000240000008400000001
:10521000240000008A00000001000000640000007B
:10522000270000001800000039000000E400000022
:1052300008000000220000002A000000A200000078
:105240002A000000A2000000FF000000FA00000099
:105250002A000000A20000003E000000A2000000A2
:105260000800000022000000000000000000000014
:105270000200000000000000020000000200000028
:10528000420000000400000033000000F8000000AD
:105290000000000004000000010000000200000007
:1052A000110000000A0000001100000032000000A0
:1052B000FF000000C200000011000000020000001A
:1052C0001100000002000000FF000000FA000000D2
:1052D00011000000020000001100000002000000A8
:1052E00001000000020000000000000000000000BB
:1052F00000000000010000000000000002000000AB
:105300000000000004000000000000000800000091
:10531000000000003000000080000000C00000001D
:1053200047000000000000003800000000000000FE
:10533000070000000000000000000000C0000000A6
:105340000000000030000000000000000C00000021
:10535000000000000200000000000000010000004A
:10536000000000000100000000000000000000003C
:1053700000000000000000000000000042000000EB
:1053800044000000440000004C000000C800000081
:1053900054000000D0000000650000004200000042
:1053A0004500000041000000460000007E000000B3
:1053B0008400000040000000880000004000000061
:1053C0009000000050000000810000004800000034
:1053D00080000000C4000000000000006200000027
:1053E00000000000000000000000000000000000BD
:1053F00004000000440000000C000000E600000073
:105400003500000044000000C60000004800000015
:105410000C00000048000000000000000100000037
:105420001100000002000000130000000C0000004A
:1054300015000000F00000009900000000000000CE
:10544000710000000000000011000000FC000000DE
:105450001500000002000000130000000200000020
:10546000110000008E00000000000000000000009D
:10547000080000002000000008000000C00000003C
:105480000B00000000000000FF000000FF00000013
:1054900009000000000000000A0000008200000077
:1054A00004000000220000000A0000001A000000B2
:1054B0003200000082000000C20000007200000004
:1054C00032000000060000000A0000001A00000080
:1054D00004000000E20000000200000002000000E2
:1054E00002000000020000000000000000000000B8
:1054F0000200000002000000220000000200000084
:10550000240000000200000025000000FA00000056
:10551000290000005200000031000000520000008D
:105520002100000052000000FF00000052000000B7
:105530002100000052000000310000005200000075
:10554000290000005200000025000000FA000000C1
:105550002400000002000000220000000200000001
:105560000200000002000000000000000000000037
:1055700000000000080000004000000010000000D3
:10558000400000002000000040000000400000003B
:10559000400000008000000041000000000000000A
:1055A00042000000000000004F000000FF0000006B
:1055B0007000000000000000420000000000000039
:1055C00041000000000000004000000080000000DA
:1055D00040000000400000004000000030000000DB
:1055E00000000000000000000000000000000000BB
:1055F0000200000001000000420000000200000064
:1056000033000000FC000000000000000200000069
:10561000000000000100000047000000FF00000043
:1056200044000000910000005400000091000000C0
:1056300054000000910000004F000000FD00000039
:10564000540000009100000064000000950000007C
:10565000440000009300000007000000FD0000006F
:105660000000000001000000000000000000000039
:105670000200000000000000020000000200000024
:10568000420000000400000033000000F8000000A9
:1056900000000000040000001000000002000000F4
:1056A0001200000002000000110000008200000053
:1056B00010000000020000001000000012000000B6
:1056C000100000000A000000FF000000F2000000CF
:1056D00010000000020000001000000002000000A6
:1056E00010000000020000000000000000000000A8
:1056F0000200000000000000420000000000000066
:1057000033000000FE000000000000000400000064
:10571000000000000800000022000000000000005F
:105720002A000000FF0000002A000000A80000007E
:105730002A000000A8000000FE000000A8000000F1
:105740002A000000AA0000002A000000A9000000B2
:105750002A000000FE0000002200000000000000FF
:105760000200000000000000000000000000000037
:105770000800000002000000080000000200000015
:10578000280000000A0000002B000000EA000000D2
:105790002A000000AA0000002A000000AA00000061
:1057A0002A000000AA0000003F000000FE000000E8
:1057B0004A000000AA0000004A000000AA00000001
:1057C0004A000000AA000000CB000000EA00000030
:1057D000480000000A00000008000000020000006D
:1057E00008000000020000000000000000000000AF
:1057F0000200000004000000220000004800000039
:105800002A00000052000000A60000004100000035
:1058100063000000FE0000002600000040000000C1
:105820002A00000050000000220000004900000093
:1058300000000000060000003F000000F80000002B
:105840002200000000000000220000000000000014
:1058500023000000FF0000004200000000000000E4
:105860000200000000000000000000000000000036
:1058700000000000080000000000000030000000F0
:105880003F000000C00000002400000000000000F5
:1058900024000000FC000000A400000088000000BC
:1058A0006400000088000000240000008800000060
:1058B0002400000088000000240000008800000090
:1058C00024000000880000003C000000FC000000F4
:1058D00000000000000000000000000000000000C8
:1058E000040000002000000044000000E000000070
:1058F00047000000200000004400000020000000DD
:1059000044000000A000000004000000740000003B
:10591000100000000800000010000000300000002F
:10592000FF000000C00000001000000000000000A8
:10593000100000000400000010000000040000003F
:105940001F000000F8000000000000000000000040
:105950000800000004000000100000001800000013
:105960002F000000E00000004900000020000000BF
:10597000C9000000200000004900000020000000D5
:105980004F000000F8000000590000002000000057
:105990006900000020000000490000002400000011
:1059A00009000000240000000F000000FC000000BF
:1059B00000000000000000000000000000000000E7
:1059C00002000000000000000400000000000000D1
:1059D0001F000000FC000000E000000000000000CC
:1059E000000000000400000013000000040000009C
:1059F00010000000E400000090000000040000001F
:105A0000700000000C000000100000007400000096
:105A100017000000840000001000000004000000D7
:105A20000000000004000000000000000000000072
:105A3000240000002000000024000000C00000003E
:105A40003F000000FC0000004500000000000000D6
:105A50004400000080000000090000002400000055
:105A600011000000240000002A000000480000008F
:105A7000E4000000A80000002900000090000000E1
:105A800032000000A000000000000000C000000084
:105A90000000000080000000000000000000000086
:105AA0003A00000004000000220000000400000092
:105AB000220000004400000022000000C800000096
:105AC0002300000048000000AE000000500000006D
:105AD0006200000020000000220000002000000002
